:100000000C9434000C9451000C9451000C94510049
:100010000C9451000C9451000C9451000C9451001C
:100020000C9451000C9451000C9451000C9451000C
:100030000C9451000C9451000C9451000C945100FC
:100040000C9451000C9451000C9451000C945100EC
:100050000C9451000C9451000C9451000C945100DC
:100060000C9451000C94510011241FBECFEFD4E02A
:10007000DEBFCDBF11E0A0E0B1E0E4E6F1E002C0F8
:1000800005900D92A430B107D9F711E0A4E0B1E0DA
:1000900001C01D92A630B107E1F70E947E000C94CA
:1000A000B0000C94000014B817B81AB88FEF85B9D7
:1000B00088B98BB90895809102018093C400809122
:1000C00003018093C50082E08093C00088E18093A3
:1000D000C10086E08093C2003B9A439878940895CB
:1000E000009741F40895000021503040E1F7019756
:1000F00019F4089540E951E09A01F5CF0E945300A8
:100100000E945B00339A88EE93E00E94700033985F
:1001100088EE93E00E947000F5CF9091C00095FDAD
:1001200006C0E0ECF0E00000908195FFFCCF8093EA
:10013000C60008950F931F93CF938C01FC0180811B
:10014000882351F0C0E00E948D00CF5FF801EC0FD2
:10015000F11D80818823B9F7CF911F910F910895E8
:04016000F894FFCF41
:0401640010270F0051
:00000001FF
