:100000000C943E000C945B000C945B000C945B0021
:100010000C945B000C945B000C945B000C945B00F4
:100020000C945B000C945B000C945B000C945B00E4
:100030000C945B000C945B000C945B000C945B00D4
:100040000C945B000C945B000C945B000C945B00C4
:100050000C945B000C945B000C945B000C945B00B4
:100060000C945B000C945B000C945B000C945B00A4
:100070000C945B000C945B000C945B0011241FBE7D
:10008000CFEFD8E0DEBFCDBF11E0A0E0B1E0E2ED00
:10009000F2E002C005900D92A030B107D9F711E04F
:1000A000A0E0B1E001C01D92A030B107E1F70E94CD
:1000B0005D000C9467010C940000CF93DF93CDB7E3
:1000C000DEB70E948C008FE590E00E94AE00F894AD
:1000D00088EE93E00E94FB0088E290E028E230E0A6
:1000E000F90120812064FC01208388EE93E00E94C6
:1000F000FB000E94DD0088E290E028E230E0F90198
:1001000020812068FC01208388EB9BE00E94FB009B
:100110000E94DD007894DBCFCF93DF93CDB7DEB7BD
:1001200084E290E0FC01108287E290E0FC01108202
:100130008AE290E0FC01108285E290E02FEFFC0162
:10014000208388E290E02FEFFC0120838BE290E097
:100150002FEFFC012083DF91CF910895CF93DF93A0
:1001600000D0CDB7DEB79A83898384EC90E02981F3
:10017000FC01208385EC90E029813A81232F3327ED
:10018000FC01208381EC90E028E1FC01208382ECDB
:1001900090E026E0FC01208387E290E027E230E057
:1001A000F9012081286FFC0120830E94DD007894F2
:1001B0000F900F90DF91CF910895CF93DF9300D0F0
:1001C000CDB7DEB788E290E0FC01908188EF892707
:1001D000882F90E09A83898388E290E028E230E0DB
:1001E000F901308129812323FC0120830F900F9096
:1001F000DF91CF910895CF93DF9300D000D0CDB79A
:10020000DEB79C838B8314C01A82198206C000005B
:1002100089819A8101969A83898389819A8121E0D3
:1002200080399207A0F38B819C8101979C838B83FB
:100230008B819C81009741F70F900F900F900F904A
:10024000DF91CF910895CF93DF930F92CDB7DEB7B3
:10025000898301C0000080EC90E0FC018081882F40
:1002600090E0807290700097A9F386EC90E029816D
:10027000FC0120830F90DF91CF910895CF93DF93FE
:1002800000D00F92CDB7DEB79B838A8319820EC050
:100290008981882F90E02A813B81820F931FFC0186
:1002A00080810E94230189818F5F89838981882FC2
:1002B00090E02A813B81820F931FFC01808188237B
:1002C00039F70F900F900F90DF91CF910895F89428
:0202D000FFCF5E
:00000001FF
