:100000000C94BB000C94D8000C94D8000C94DA002B
:100010000C94D8000C94D8000C94D8000C94D80000
:100020000C94D8000C94D8000C94D8000C943B018C
:100030000C94D8000C94D8000C94D8000C94D800E0
:100040000C94D8000C94D8000C940B010C94D8009C
:100050000C94D8000C94D8000C94D8000C94D800C0
:100060000C94D8000C94D8000C94D8000C94D800B0
:100070000C94D8000C94D8000C94D80000407A104E
:10008000F35A00A0724E18090010A5D4E80000E849
:100090007648170000E40B54020000CA9A3B0000A7
:1000A00000E1F505000080969800000040420F0036
:1000B0000000A08601000000102700000000E803F7
:1000C000000000006400000000000A0000000000C2
:1000D0000100000000002C76D888DC674F0823DF81
:1000E000C1DFAE59E1B1B796E5E3E453C63AE65154
:1000F000997696E8E6C28426EB898C9B62ED407C7B
:100100006FFCEFBC9C9F40F2BAA56FA5F490055A16
:100110002AF75C936B6CF9676DC11BFCE0E40D473B
:10012000FEF520E6B500D0ED902E0300943577055E
:100130000080841E080000204E0A000000C80C3316
:100140003333330F986E12831141EF8D2114893BA5
:10015000E65516CFFEE6DB18D1844B381BF77C1D25
:10016000901DA4BBE424203284725E228100C9F178
:1001700024ECA1E53D2711241FBECFEFD8E0DEBF60
:10018000CDBF11E0A0E0B1E0E8E0FCE102C00590E5
:100190000D92A435B107D9F711E0A4E5B1E001C093
:1001A0001D92A835B107E1F70E9467010C94020E79
:1001B0000C9400001F920F920FB60F9211242F93F0
:1001C0003F934F935F936F937F938F939F93AF93DF
:1001D000BF93EF93FF93CF93DF93CDB7DEB788E262
:1001E00090E020E2FC0120838AE090E00E94D206A9
:1001F000DF91CF91FF91EF91BF91AF919F918F913F
:100200007F916F915F914F913F912F910F900FBE12
:100210000F901F9018951F920F920FB60F921124F6
:100220002F933F938F939F93EF93FF93CF93DF93FE
:10023000CDB7DEB7809156018F5F809356018091D4
:100240005601843158F086E290E026E230E0F90170
:1002500020812860FC01208310925601DF91CF910C
:10026000FF91EF919F918F913F912F910F900FBE32
:100270000F901F9018951F920F920FB60F92112496
:100280002F938F939F93EF93FF93CF93DF93CDB7EC
:10029000DEB79091550181E0983208F480E09F5FCD
:1002A00090935501882339F086E290E028E0FC0124
:1002B000208310925501DF91CF91FF91EF919F9193
:1002C0008F912F910F900FBE0F901F901895CF9385
:1002D000DF93CDB7DEB70E94F30183E390E00E9485
:1002E0001A02789488E290E00E94D2060E94B40636
:1002F0000E94040388E290E028E230E0F9012081C6
:100300002860FC0120830E9427058AE090E00E947B
:10031000D2060E94B40688E290E028E230E0F901BB
:1003200020812061FC0120830E94FE058AE090E08C
:100330000E94D2060E94B40688E290E028E230E0F3
:10034000F90120812062FC01208383E390E00E9478
:1003500038038AE090E00E94D2060E94B40688E248
:1003600090E028E230E0F90120812064FC01208344
:100370008DE394E0FC0109958AE090E00E94D206AA
:1003800080E091E00E9414070E94B40681E080930F
:1003900057011092540183E590E026E0FC01208390
:1003A00083E590E023E530E0F90120812160FC0144
:1003B000208306C08895809154018F5F80935401FB
:1003C000809154018837B0F383E590E0FC011082FE
:1003D0001092570184E190E00E94D20684E191E0FE
:1003E0000E94140787CFCF93DF93CDB7DEB781E2AA
:1003F00090E0FC01108284E290E0FC01108287E230
:1004000090E0FC0110828AE290E0FC01108282E21E
:1004100090E0FC01108285E290E0FC01108288E20D
:1004200090E0FC0110828BE290E0FC011082DF91F1
:10043000CF910895CF93DF9300D000D000D0CDB7F7
:10044000DEB79E838D8384EC90E02D81FC012083B8
:1004500085EC90E02D813E81232F3327FC01208302
:1004600081EC90E028E1FC01208382EC90E026E022
:10047000FC01208387E290E027E230E0F90120814F
:10048000286FFC01208383E090E09A8389831DC05C
:1004900088E290E028E230E0F9012081422F21E05B
:1004A00030E0098002C0220F331F0A94E2F7242BA8
:1004B000FC0120838AE090E00E94D2060E94B406EC
:1004C00089819A8101969A83898389819A8188306A
:1004D0009105F4F287E090E09C838B831DC088E255
:1004E00090E028E230E0F9012081422F21E030E065
:1004F0000B8002C0220F331F0A94E2F7242BFC0169
:1005000020838AE090E00E94D2060E94B4068B818C
:100510009C8101979C838B838B819C819923FCF622
:1005200084E290E024E230E0F9012081206BFC01BC
:10053000208385E290E025E230E0F9012081206906
:10054000FC01208385E290E025E230E0F901208182
:100550002F7BFC01208385E290E025E230E0F90169
:1005600020812F7DFC0120838CE490E02CE430E09E
:10057000F90120812365FC01208384E690E024E6D4
:1005800030E0F90120812D6FFC01208389E690E0A5
:1005900029E630E0F90120812063FC0120838DE30E
:1005A00090E024E0FC0120831092570126960FB6BC
:1005B000F894DEBF0FBECDBFDF91CF910895CF93EA
:1005C000DF93CDB7DEB7F89484E690E024E630E020
:1005D000F90120812F7DFC01208381E090E00E94C1
:1005E000D20685E490E025E0FC01208385E390E0DD
:1005F00021E0FC0120838EE690E021E0FC012083D5
:100600007894DF91CF910895CF93DF93CDB7DEB784
:10061000F89484E690E024E630E0F90120812F7B15
:10062000FC01208381E090E00E94D20681EB90E003
:1006300021EB30E0F90120812760FC0120830000DC
:1006400086EB90E0FC018081882F90E081719070B2
:100650000097B1F787E390E021E0FC01208380E779
:1006600090E021E0FC0120837894DF91CF91089500
:100670000F931F93CF93DF93CDB7DEB760970FB67D
:10068000F894DEBF0FBECDBF988B8F871A82198278
:1006900084E690E024E630E0F90120812F7EFC0121
:1006A00020838AE090E00E94D2068CEC90E0FC016E
:1006B000118210828AE290E02AE230E0F901208182
:1006C0002063FC0120838BE290E02BE230E0F90113
:1006D00020812063FC0120838AEC90E020ECFC0167
:1006E000208389EC90E028E1FC0120838CEC90E0F1
:1006F0002F85FC0120838DEC90E02F853889232FF6
:100700003327FC012083000088EC90E0FC0180810D
:10071000882F90E0807290700097B1F38BE290E0A8
:100720002BE230E0F90120812F7DFC0120838EEC4B
:1007300090E0FC011082000088EC90E0FC018081D8
:100740008823D4F78EEC90E0FC018081882F90E024
:10075000982F88279A8389838EEC90E0FC01108281
:10076000000088EC90E0FC0180818823D4F78EECB7
:1007700090E0FC018081882F90E029813A81822BD2
:10078000932B9A8389838BE290E02BE230E0F9018E
:1007900020812063FC0120838AEC90E0FC01108220
:1007A00089EC90E0FC01108288EC90E0FC01108262
:1007B0008CEC90E0FC0110828DEC90E0FC0110824A
:1007C00084E690E024E630E0F90120812061FC011C
:1007D000208389819A819695879596958795CC01F6
:1007E000A0E0B0E0BC01CD010E940A08DC01CB0111
:1007F000BC01CD0120E030E040E05DE30E949808BC
:10080000DC01CB01BC01CD0126E636E646EE5FE316
:100810000E949808DC01CB01BC01CD0120E030E052
:1008200040E052E40E943E07DC01CB018B839C83B5
:10083000AD83BE838B819C81AD81BE81FE013796E5
:10084000BC01CD0145E022E08F010E94FB088EE251
:100850008D871E8683E291E00E941407CE010796E1
:100860000E94140760960FB6F894DEBF0FBECDBF8E
:10087000DF91CF911F910F9108950F931F93CF9305
:10088000DF93CDB7DEB762970FB6F894DEBF0FBE29
:10089000CDBF1C821B8280E090E0DC018D839E83B3
:1008A000AF83B88784E690E024E630E0F901208148
:1008B0002E7FFC0120838CE790E02CE730E0F901EB
:1008C00020812264FC0120838AE790E02AE730E05F
:1008D000F90120812768FC0120838EE790E02BEF4F
:1008E000FC0120838AE090E00E94D2061A821982DD
:1008F00019C08AE790E02AE730E0F90120812064FE
:10090000FC01208300008AE790E0FC018081882FB1
:1009100090E0807490700097B1F789819A81019678
:100920009A83898389819A818230910514F388E7BB
:1009300090E0FC018081882F90E09C838B8389E785
:1009400090E0FC018081882F90E0982F88272B81F0
:100950003C81822B932B9C838B838AE790E0FC0164
:1009600010828CE790E0FC0110828EE790E02EE789
:1009700030E0F90120812460FC01208384E690E0CE
:1009800024E630E0F90120812160FC01208322EF80
:1009900032E08B819C81A901481B590BCA019C83C1
:1009A0008B838B819C81CC01A0E0B0E0BC01CD01A8
:1009B0000E940A08DC01CB01BC01CD0128E431EE24
:1009C0004CE151E40E94A207DC01CB018D839E83A0
:1009D000AF83B8876D817E818F81988526E636E664
:1009E00046EE5FE30E949808DC01CB01BC01CD011B
:1009F00020E030E040E052E40E943E07DC01CB0101
:100A00008D839E83AF83B8878D819E81AF81B885AA
:100A1000FE013996BC01CD0145E022E08F010E9424
:100A2000FB088EE2898B1A8A8EE291E00E941407FD
:100A3000CE0109960E94140762960FB6F894DEBFA5
:100A40000FBECDBFDF91CF911F910F9108950F93EE
:100A50001F93CF93DF93CDB7DEB762970FB6F894AD
:100A6000DEBF0FBECDBF84E690E024E630E0F901A2
:100A700020812E7FFC0120838AE090E00E94D20634
:100A80008CE790E02CE730E0F90120812164FC0143
:100A900020838AE790E02AE730E0F9012081276887
:100AA000FC0120838EE790E02DEFFC0120838AE09B
:100AB00090E00E94D2061A82198219C08AE790E05B
:100AC0002AE730E0F90120812064FC012083000046
:100AD0008AE790E0FC018081882F90E0807490701C
:100AE0000097B1F789819A8101969A8389838981D8
:100AF0009A818230910514F388E790E0FC018081AF
:100B0000882F90E09C838B8389E790E0FC018081B3
:100B1000882F90E0982F88272B813C81822B932B64
:100B20009C838B838AE790E0FC0110828CE790E045
:100B3000FC0110828EE790E02EE730E0F901208181
:100B40002260FC01208384E690E024E630E0F90195
:100B500020812160FC0120838B819C81CC01A0E05D
:100B6000B0E0BC01CD010E940A08DC01CB018D83FD
:100B70009E83AF83B8876D817E818F81988520E0C9
:100B800030E04BE153E40E943D07DC01CB018D8353
:100B90009E83AF83B8876D817E818F81988523E79F
:100BA00038E64DE950E40E94A207DC01CB018D83B9
:100BB0009E83AF83B8878D819E81AF81B885FE010A
:100BC0003996BC01CD0145E022E08F010E94FB086F
:100BD0008EE2898B1A8A8CE391E00E941407CE0181
:100BE00009960E94140762960FB6F894DEBF0FBEF6
:100BF000CDBFDF91CF911F910F9108950F931F9358
:100C0000CF93DF93CDB7DEB72E970FB6F894DEBF44
:100C10000FBECDBF1A82198284E690E024E630E050
:100C2000F90120812B7FFC0120838AE090E00E9463
:100C3000D20685E290E025E230E0F90120812F7EA6
:100C4000FC0120838EE490E0FC01108200008DE422
:100C500090E0FC0180818823D4F78EE490E0FC01D1
:100C60008081882F90E0982F88279A8389838EE44B
:100C700090E0FC01108200008DE490E0FC01808196
:100C80008823D4F78EE490E0FC018081882F90E0E7
:100C900029813A81822B932B9A83898384E690E081
:100CA00024E630E0F90120812460FC01208385E204
:100CB00090E025E230E0F90120812069FC012083E9
:100CC0008AE090E00E94D20689819A81CC01A0E05E
:100CD000B0E0BC01CD010E940A08DC01CB01BC01DF
:100CE000CD0120E030E040E05DE30E949808DC01A7
:100CF000CB01BC01CD0126E636E646EE5FE30E945D
:100D00009808DC01CB01BC01CD0120E030E040E0DF
:100D100052E40E943E07DC01CB018B839C83AD83B0
:100D2000BE838B819C81AD81BE81FE013796BC0163
:100D3000CD0145E022E08F010E94FB088EE28D8705
:100D40001E8688E491E00E941407CE0107960E9457
:100D500014072E960FB6F894DEBF0FBECDBFDF91FD
:100D6000CF911F910F910895CF93DF9300D0CDB70E
:100D7000DEB788E290E0FC01908188EF8927882F18
:100D800090E09A83898388E290E028E230E0F901DC
:100D9000308129812323FC0120830F900F90DF9164
:100DA000CF910895CF93DF9300D000D0CDB7DEB7B9
:100DB0009C838B8314C01A82198206C0000089812B
:100DC0009A8101969A83898389819A8121E0803969
:100DD0009207A0F38B819C8101979C838B838B81ED
:100DE0009C81009741F70F900F900F900F90DF912B
:100DF000CF910895CF93DF930F92CDB7DEB789835C
:100E0000000080EC90E0FC018081882F90E08072EF
:100E100090700097B1F386EC90E02981FC0120836B
:100E20000F90DF91CF910895CF93DF9300D00F9271
:100E3000CDB7DEB79B838A8319820EC08981882F44
:100E400090E02A813B81820F931FFC0180810E94E8
:100E5000FA0689818F5F89838981882F90E02A81B2
:100E60003B81820F931FFC018081882339F70F900B
:100E70000F900F90DF91CF9108955058BB27AA276C
:100E80000ED01CC10DD130F012D120F031F49F3FB3
:100E900011F41EF402C10EF4E095E7FBF8C0E92F4F
:100EA0001ED180F3BA17620773078407950718F0FD
:100EB00071F49EF536C10EF4E0950B2EBA2FA02DDD
:100EC0000B01B90190010C01CA01A0011124FF27F7
:100ED000591B99F0593F50F4503E68F11A16F040F2
:100EE000A22F232F342F4427585FF3CF46953795F1
:100EF0002795A795F0405395C9F77EF41F16BA0BB6
:100F0000620B730B840BBAF09150A1F0FF0FBB1F63
:100F1000661F771F881FC2F70EC0BA0F621F731FAC
:100F2000841F48F4879577956795B795F7959E3F09
:100F300008F0B3CF9395880F08F09927EE0F979597
:100F4000879508950CD0BAC0B2D040F0A9D030F047
:100F500021F45F3F19F09BC05111E4C09EC0BFD087
:100F600098F39923C9F35523B1F3951B550BBB2770
:100F7000AA2762177307840738F09F5F5F4F220F1D
:100F8000331F441FAA1FA9F333D00E2E3AF0E0E816
:100F900030D091505040E695001CCAF729D0FE2F62
:100FA00027D0660F771F881FBB1F261737074807F4
:100FB000AB07B0E809F0BB0B802DBF01FF279358AA
:100FC0005F4F2AF09E3F510568F061C0ABC05F3FA4
:100FD000ECF3983EDCF3869577956795B795F79592
:100FE0009F5FC9F7880F911D9695879597F908958A
:100FF000E1E0660F771F881FBB1F62177307840726
:10100000BA0720F0621B730B840BBA0BEE1F88F734
:10101000E0950895E89409C097FB3EF4909580957B
:10102000709561957F4F8F4F9F4F9923A9F0F92FAE
:1010300096E9BB279395F695879577956795B7952C
:10104000F111F8CFFAF4BB0F11F460FF1BC06F5F12
:101050007F4F8F4F9F4F16C0882311F096E911C024
:10106000772321F09EE8872F762F05C0662371F045
:1010700096E8862F70E060E02AF09A95660F771F59
:10108000881FDAF7880F9695879597F9089597F94D
:101090009F6780E870E060E008959FEF80EC08951E
:1010A00000240A9416161706180609060895002447
:1010B0000A9412161306140605060895092E0394C1
:1010C000000C11F4882352F0BB0F40F4BF2B11F435
:1010D00060FF04C06F5F7F4F8F4F9F4F089557FD94
:1010E0009058440F551F59F05F3F71F04795880F96
:1010F00097FB991F61F09F3F79F08795089512162D
:1011000013061406551FF2CF4695F1DF08C01616D8
:1011100017061806991FF1CF869571056105089489
:101120000895E894BB2766277727CB0197F90895A0
:101130000BD0C4CFB5DF28F0BADF18F0952309F043
:10114000A6CFABCF1124EECFCADFA0F3959FD1F38A
:10115000950F50E0551F629FF001729FBB27F00D65
:10116000B11D639FAA27F00DB11DAA1F649F6627BA
:10117000B00DA11D661F829F2227B00DA11D621F09
:10118000739FB00DA11D621F839FA00D611D221FC3
:10119000749F3327A00D611D231F849F600D211DA7
:1011A000822F762F6A2F11249F5750408AF0E1F04A
:1011B00088234AF0EE0FFF1FBB1F661F771F881F93
:1011C00091505040A9F79E3F510570F060CFAACFD3
:1011D0005F3FECF3983EDCF3869577956795B7957E
:1011E000F795E7959F5FC1F7FE2B880F911D9695A8
:1011F000879597F90895EF920F931F93CF93322F0E
:10120000C02F47FF02C0A4E101C0A4E0E42FFF27E4
:10121000E7FDF095F7FF03C0F095E195FF4F4C2FE8
:10122000512F2E2F032FEA2E0E94FB0A8C2F912F75
:10123000CF911F910F91EF900895ADE0B0E0E3E200
:10124000F9E00C94CB0D3C017D876C875A01FC01C1
:1012500017821682838181FFC8C12E010894411C28
:10126000511CF3019381EC85FD8593FD859193FFDE
:101270008191FD87EC87882309F4B3C1853241F45D
:1012800093FD859193FF8191FD87EC87853229F449
:1012900090E0B3010E94410DE4CFFF24EE2410E062
:1012A0001032B0F48B3269F08C3228F4803251F075
:1012B000833271F40BC08D3239F0803349F4116000
:1012C0002CC01260146029C0186027C0106125C0AE
:1012D00017FD2EC0282F20532A3098F416FF08C07F
:1012E0008F2D880FF82EFF0CFF0CF80EF20E15C094
:1012F0008E2D880FE82EEE0CEE0CE80EE20E10623A
:101300000CC08E3221F416FD6CC1106406C08C3600
:1013100011F4106802C0883659F4EC85FD8593FD00
:10132000859193FF8191FD87EC87882309F0B8CFE1
:10133000982F9554933018F09052933038F424E05D
:1013400030E0A20EB31E3FE339830FC0833631F085
:10135000833781F0833509F05AC022C0F5018081BE
:10136000898322E030E0A20EB31E21E0C22ED12CF0
:10137000420114C092E0292E312C2A0C3B1CF501AD
:101380008080918016FF03C06F2D70E002C06FEF68
:101390007FEFC4010E94360D6C0151011F7715C00B
:1013A00082E0282E312C2A0C3B1CF5018080918094
:1013B00016FF03C06F2D70E002C06FEF7FEFC40116
:1013C0000E942B0D6C011068510113FD1CC006C05A
:1013D00080E290E0B3010E94410DEA948E2D90E0EE
:1013E000C816D906A8F30FC0F40117FD859117FFA1
:1013F00081914F0190E0B3010E94410DE110EA9408
:101400000894C108D108C114D10471F7E7C084362B
:1014100011F0893651F5F50117FF07C080819181E0
:10142000A281B38124E030E008C080819181AA27A5
:1014300097FDA095BA2F22E030E0A20EB31E012F37
:101440000F76B7FF08C0B095A095909581959F4FF6
:10145000AF4FBF4F0068BC01CD01A2012AE030E0D0
:101460000E946D0DD82ED4183FC0853721F41F7E01
:101470002AE030E020C0197F8F36A9F0803720F4B1
:10148000883509F0AEC00BC0803721F0883709F0ED
:10149000A8C001C0106114FF09C0146007C014FF88
:1014A00008C0166006C028E030E005C020E130E04A
:1014B00002C020E132E0F50117FF07C060817181B1
:1014C0008281938144E050E006C06081718180E0B8
:1014D00090E042E050E0A40EB51EA2010E946D0D06
:1014E000D82ED418012F0F7706FF09C00E7FDF1406
:1014F00030F404FF06C002FD04C00F7E02C01D2DA3
:1015000001C01F2D802F90E004FF0CC0FE01ED0DE7
:10151000F11D2081203311F4097E09C002FF06C0AD
:101520001E5F05C086789070009709F01F5F802EBF
:10153000992403FD12C000FF0DC0FD2C1E1550F4B0
:10154000FE0CF11A1E2D06C080E290E0B3010E944D
:10155000410D1F5F1E15C0F304C01E1510F4E11AE3
:1015600001C0EE2484FE0FC080E390E0B3010E942E
:10157000410D82FE1FC081FE03C088E590E010C0CF
:1015800088E790E00DC0C40186789070009791F0D4
:1015900081FC02C080E201C08BE207FD8DE290E099
:1015A000B3010E94410D06C080E390E0B3010E94A8
:1015B000410DFA94DF14C0F3DA94F201ED0DF11D40
:1015C000808190E0B3010E94410DDD20A9F706C0A3
:1015D00080E290E0B3010E94410DEA94EE20C1F751
:1015E00040CEF3018681978102C08FEF9FEF2D9649
:1015F000E2E10C94E70DA9E0B0E0E1E0FBE00C943F
:10160000CF0D6A01122FF02E2BE3201718F0B02E09
:10161000B39402C03CE3B32EAE014F5F5F4F27E0AF
:101620000B2D0E94530CBC01A981B0E0CD01897043
:1016300090708130910531F0E1FC06C0E0FE06C0FB
:1016400040E205C04DE203C04BE201C040E0A3FF11
:1016500036C0442311F084E001C083E0811710F408
:10166000181B01C010E0E4FC0BC0912FF60180E2D2
:1016700002C0819391509923E1F7C10ED11C10E073
:10168000442319F0F60141936F01E2FE05C08EE498
:10169000F601808391E404C08EE6F601808391E632
:1016A0009183828383E090E0C80ED91E812FF601DA
:1016B00090E202C0919381508823E1F73AC0A2FFE3
:1016C0003FC0442311F084E001C083E0811710F48F
:1016D000181B01C010E0E4FC0BC0912FF60180E262
:1016E00002C0819391509923E1F7C10ED11C10E003
:1016F000442319F0F60141936F01E2FE07C089E42B
:10170000F60180838EE4818386E406C089E6F601D3
:1017100080838EE6818386E6828383E090E0C80E34
:10172000D91E812FF60190E202C091938150882347
:10173000E1F7C10ED11CF60110828EEF9FEFAFC012
:1017400021E030E0442311F420E030E016161706C3
:101750001CF4CB01019602C081E090E0280F391FF4
:10176000FF2021F08F2D90E0019602C080E090E0F4
:10177000820F931F212F30E0821793071CF4512F03
:10178000581B01C050E08E2D90E09C0120713070FC
:10179000E4FC0DC0E3FC0BC0852FF60190E202C013
:1017A000919381508823E1F7C50ED11C50E044236A
:1017B00019F0F60141936F012115310559F4852F78
:1017C000F60190E302C0919381508823E1F7C50EA2
:1017D000D11C50E0B60E4A8120E1622E712C6A22A3
:1017E0007B22A4FF03C0413309F4BA941B142CF4E8
:1017F0008B2D893018F088E001C081E09B0177FFD4
:1018000002C020E030E0A0E0B0E09EE2E92E4B0113
:10181000881A9108CB01821B930B8E010F5F1F4F1B
:10182000080F191F8F2D90E0AA24BB24A81AB90A0B
:10183000FFEF2F3F3F0719F4F601E1926F016217A6
:10184000730744F0821693062CF4F801EA0FFB1F8D
:10185000818101C080E32150304011962A153B055B
:1018600024F0F60181936F01E3CF2617370741F487
:10187000463328F4453321F46114710409F481E3FB
:10188000F6018193852FDF0190E202C09D93815084
:101890008823E1F7E50FF11D108280E090E02996A2
:1018A000EEE00C94EB0D283008F027E03327DA0146
:1018B000990F311D87FD916000966105710539F41E
:1018C00032602E5F3D9330E32A95E1F708959F3F04
:1018D00030F080387105610509F03C5F3C5F3D9355
:1018E000913008F08068911DDF93CF931F930F9381
:1018F000FF92EF92192F987F9695E92F96959695DE
:10190000E90FFF27EA52FF4F99273327EE24FF24E0
:10191000A701E70105900894079428F4360FE71E05
:10192000F81E491F511D660F771F881F991F0694C7
:10193000A1F70590079428F4E70EF81E491F561FDB
:10194000C11D770F881F991F661F0694A1F7059088
:10195000079428F4F80E491F561FC71FD11D880F82
:10196000991F661F771F0694A1F70590079420F42E
:10197000490F561FC71FD81F990F661F771F881F53
:101980000694A9F784911095177041F0D695C795E4
:1019900057954795F794E7941A95C1F7ECE7F0E06F
:1019A00068941590159135916591959105907FE218
:1019B0007395E118F10A430B560BC90BD009C0F718
:1019C000E10CF11E431F561FC91FD01D7EF470335A
:1019D00011F48A95E6CFE894015030F0080F0AF42C
:1019E0000027021708F4202F2395022F7A3328F0BE
:1019F00079E37D932A95E9F710C07D932A9589F6BE
:101A0000069497956795379517951794E118F10AFD
:101A1000430B560BC90BD00998F023957E91739513
:101A20007A3308F070E37C932013B8F77E917061ED
:101A30007D9330F0839571E37D9370E32A95E1F710
:101A40001124EF90FF900F911F91CF91DF91992773
:101A500087FD90950895FC0105906150704001103C
:101A6000D8F7809590958E0F9F1F0895FC016150C7
:101A7000704001900110D8F7809590958E0F9F1FB0
:101A800008950F931F93CF93DF938C01EB018B810C
:101A900081FF1BC082FF0DC02E813F818C819D8103
:101AA0002817390764F4E881F9810193F983E88301
:101AB00006C0E885F985802F0995009731F48E815D
:101AC0009F8101969F838E8302C00FEF1FEFC80195
:101AD000DF91CF911F910F910895FA01AA27283025
:101AE00051F1203181F1E8946F936E7F6E5F7F4FEB
:101AF0008F4F9F4FAF4FB1E03ED0B4E03CD0670F67
:101B0000781F891F9A1FA11D680F791F8A1F911DB9
:101B1000A11D6A0F711D811D911DA11D20D009F409
:101B200068943F912AE0269F11243019305D31934B
:101B3000DEF6CF010895462F4770405D4193B3E034
:101B40000FD0C9F7F6CF462F4F70405D4A3318F0DB
:101B5000495D31FD4052419302D0A9F7EACFB4E08C
:101B6000A6959795879577956795BA95C9F7009744
:101B70006105710508959B01AC010A2E06945795E5
:101B8000479537952795BA95C9F7620F731F841F3C
:101B9000951FA01D08952F923F924F925F926F92D2
:101BA0007F928F929F92AF92BF92CF92DF92EF92ED
:101BB000FF920F931F93CF93DF93CDB7DEB7CA1B6E
:101BC000DB0B0FB6F894DEBF0FBECDBF09942A8899
:101BD000398848885F846E847D848C849B84AA8441
:101BE000B984C884DF80EE80FD800C811B81AA81CE
:101BF000B981CE0FD11D0FB6F894DEBF0FBECDBF99
:081C0000ED010895F894FFCFF7
:101C080020476F696E6720746F20736C6565702E4E
:101C18002E2E20002057616B696E672075702E2E5E
:101C28002E20002054492074656D703D20002054FA
:101C38006865726D2054656D703D20002048756D93
:101C480069646974793A20002041442074656D7094
:041C58003D2000002B
:00000001FF
