:1000000010C02AC029C028C027C026C025C024C0CF
:1000100023C022C021C020C01FC01EC01DC01CC0E4
:100020001BC011241FBECFE5D2E0DEBFCDBF10E064
:10003000A0E6B0E0E4E6F1E002C005900D92A03643
:10004000B107D9F710E0A0E6B0E001C01D92A036DC
:10005000B107E1F702D084C0D3CFCF93DF93CDB700
:10006000DEB71ED083E390E034D0789488EE93E03E
:100070004FD088E390E028E330E0F90120812E7F23
:10008000FC01208388EE93E043D088E390E028E3EE
:1000900030E0F90120812160FC012083F894E5CF54
:1000A000CF93DF93CDB7DEB78AE390E0FC011082F7
:1000B00087E390E0FC0110828BE390E02FEFFC01DE
:1000C000208388E390E02FEFFC012083DF91CF9124
:1000D0000895CF93DF9300D0CDB7DEB79A8389839D
:1000E00087E390E027E330E0F90120812160FC0103
:1000F000208388E390E028E330E0F901208121604B
:10010000FC01208378940F900F90DF91CF91089598
:10011000CF93DF9300D000D0CDB7DEB79C838B8325
:1001200014C01A82198206C0000089819A81019642
:100130009A83898389819A8121E080399207A0F38B
:100140008B819C8101979C838B838B819C81009701
:1001500041F70F900F900F900F90DF91CF9108957E
:04016000F894FFCF41
:00000001FF
