:1000000010C02AC02AC028C027C026C025C024C0CE
:1000100023C022C021C020C01FC02EC01DC01CC0D4
:100020001BC011241FBECFE5D2E0DEBFCDBF10E064
:10003000A0E6B0E0EAE1F1E002C005900D92A03642
:10004000B107D9F710E0A0E6B0E001C01D92A136DB
:10005000B107E1F72CD05FC0D3CF1F920F920FB63C
:100060000F9211248F93F89489B378948F910F9005
:100070000FBE0F901F9018951F920F920FB60F9200
:100080001124109260000F900FBE0F901F901895D2
:100090001ABA17BA8FEF8BBB88BB089517B88DE0DB
:1000A00086B980E18BBF88E082BB78940895F0DF49
:1000B00085E090E0F3DFFFCFCF93DF9300D000D057
:1000C000CDB7DEB79C838B838B819C810097E1F059
:1000D0001A82198289819A8121E08039920758F425
:1000E00089819A8101969A83898389819A8121E005
:1000F00080399207A8F38B819C8101979C838B8325
:100100008B819C81009721F70F900F900F900F909B
:0A011000DF91CF910895F894FFCF1E
:00000001FF
