:100000000C94BC000C94E4000C94E4000C94370CA9
:100010000C94E4000C94E4000C94E4000C94E400D0
:100020000C94E4000C94E4000C94E4000C94710C27
:100030000C94E4000C94E4000C94E4000C94E400B0
:100040000C94E4000C94E4000C94E4000C94E400A0
:100050000C94E4000C94E4000C94E4000C94E40090
:100060000C94E4000C94E4000C94E4000C94E40080
:100070000C94E4000C94E4000C94E40000407A102A
:10008000F35A00A0724E18090010A5D4E80000E849
:100090007648170000E40B54020000CA9A3B0000A7
:1000A00000E1F505000080969800000040420F0036
:1000B0000000A08601000000102700000000E803F7
:1000C000000000006400000000000A0000000000C2
:1000D0000100000000002C76D888DC674F0823DF81
:1000E000C1DFAE59E1B1B796E5E3E453C63AE65154
:1000F000997696E8E6C28426EB898C9B62ED407C7B
:100100006FFCEFBC9C9F40F2BAA56FA5F490055A16
:100110002AF75C936B6CF9676DC11BFCE0E40D473B
:10012000FEF520E6B500D0ED902E0300943577055E
:100130000080841E080000204E0A000000C80C3316
:100140003333330F986E12831141EF8D2114893BA5
:10015000E65516CFFEE6DB18D1844B381BF77C1D25
:10016000901DA4BBE424203284725E228100C9F178
:1001700024ECA1E53D27B01311241FBECFEFD8E03A
:10018000DEBFCDBF11E0A0E0B1E0E8E8F2E302C0DD
:1001900005900D92A237B107D9F711E0A2E7B1E0BF
:1001A00001C01D92A73AB107E1F711E0C8E7D1E01D
:1001B00004C02297FE010E940816C637D107C9F76E
:1001C0000E94E70C0C9442190C940000CF93DF932B
:1001D00000D0CDB7DEB79A83898389819A810E9446
:1001E000F6000F900F90DF91CF910895CF93DF939A
:1001F00000D0CDB7DEB79A83898389819A810E9426
:100200000A0189819A810E9444010F900F90DF9129
:10021000CF910895CF93DF9300D0CDB7DEB79A8307
:10022000898329813A8180E090E0DC01F9018083B3
:100230009183A283B38329813A8180E090E0AAE789
:10024000B4E4F90184839583A683B78329813A8135
:1002500080E090E0DC01F90180879187A287B38775
:1002600029813A8180E090E0DC01F901848795875B
:10027000A687B78789819A81FC0111A210A20F90ED
:100280000F90DF91CF910895CF93DF9300D0CDB73A
:10029000DEB79A83898389819A81FC0112A2298120
:1002A0003A8180E090E0DC01F901808B918BA28B98
:1002B000B38B29813A8180E090E0DC01F901848BE5
:1002C000958BA68BB78B29813A8180E090E0DC0189
:1002D000F901848F958FA68FB78F29813A8180E0AD
:1002E00090E0DC01F901808F918FA28FB38F0F9086
:1002F0000F90DF91CF910895CF92DF92EF92FF920E
:100300000F931F93CF93DF9300D0CDB7DEB79A83BF
:1003100089830E94C6106B017C010E94A1118B0190
:100320009C0189819A81B701A6010E94AF030F90B9
:100330000F90DF91CF911F910F91FF90EF90DF9081
:10034000CF900895EF92FF920F931F93CF93DF9377
:1003500000D0CDB7DEB79A83898389819A810E94C4
:100360007C0189819A81FC0182A1282F2F5F8981DC
:100370009A81FC0122A389819A81FC01E088F1889D
:100380000289138989819A81FC0182A1882F90E0DA
:100390000197AA2797FDA095BA2FBC01CD010E9415
:1003A000BC149B01AC01C801B7010E947015DC01AF
:1003B000CB0129813A81F901208131814281538128
:1003C000BC01CD010E94BE13DC01CB017C018D017B
:1003D00089819A81FC0182A1882F90E0AA2797FD4C
:1003E000A095BA2FBC01CD010E94BC149B01AC01A9
:1003F000C801B7010E942614DC01CB0129813A8192
:10040000F901808B918BA28BB38B89819A81FC013E
:10041000E488F5880689178989819A81FC0182A17F
:10042000882F90E00197AA2797FDA095BA2FBC01CD
:10043000CD010E94BC149B01AC01C801B7010E9410
:100440007015DC01CB0129813A81F90124813581C4
:1004500046815781BC01CD010E94BE13DC01CB0156
:100460007C018D0189819A81FC0182A1882F90E015
:10047000AA2797FDA095BA2FBC01CD010E94BC14FC
:100480009B01AC01C801B7010E942614DC01CB011D
:1004900029813A81F901848B958BA68BB78B898151
:1004A0009A81FC01E48CF58C068D178D89819A81E7
:1004B000FC0182A1882F90E00197AA2797FDA095C3
:1004C000BA2FBC01CD010E94BC149B01AC01C80134
:1004D000B7010E947015DC01CB0129813A81F90135
:1004E0002485358546855785BC01CD010E94BE1304
:1004F000DC01CB017C018D0189819A81FC0182A103
:10050000882F90E0AA2797FDA095BA2FBC01CD01B6
:100510000E94BC149B01AC01C801B7010E942614C3
:10052000DC01CB0129813A81F901848F958FA68F57
:10053000B78F89819A81FC01E08CF18C028D138D3B
:1005400089819A81FC0182A1882F90E00197AA27D6
:1005500097FDA095BA2FBC01CD010E94BC149B0150
:10056000AC01C801B7010E947015DC01CB012981E3
:100570003A81F9012085318542855385BC01CD0141
:100580000E94BE13DC01CB017C018D0189819A811F
:10059000FC0182A1882F90E0AA2797FDA095BA2F91
:1005A000BC01CD010E94BC149B01AC01C801B70184
:1005B0000E942614DC01CB0129813A81F901808F48
:1005C000918FA28FB38F89819A810E940A010F9027
:1005D0000F90DF91CF911F910F91FF90EF900895B1
:1005E0000F931F93CF93DF93CDB7DEB76A970FB604
:1005F000F894DEBF0FBECDBF9A8F898F898D9A8DFB
:10060000FC0182A18823C1F5898D9A8DFC0180852A
:100610009185A285B385298D3A8DF901808F918FBF
:10062000A28FB38F898D9A8DFC0184859585A685CF
:10063000B785298D3A8DF901848F958FA68FB78F55
:10064000898D9A8DFC0180819181A281B381298D50
:100650003A8DF901808B918BA28BB38B898D9A8D0A
:10066000FC0184819581A681B781298D3A8DF9019C
:10067000848B958BA68BB78B898D9A8DFC01808995
:100680009189A289B389BC01CD0140E022E0FE013D
:1006900031968F010E940C16898D9A8DFC018489F8
:1006A0009589A689B789FE013796BC01CD0140E046
:1006B00022E08F010E940C16898D9A8DFC01848D99
:1006C000958DA68DB78DFE013D96BC01CD0140E014
:1006D00022E08F010E940C16898D9A8DFC01808D7D
:1006E000918DA28DB38DFE017396BC01CD0140E0CA
:1006F00022E08F010E940C1680E091E00E94180811
:10070000CE0101960E94180883E091E00E9418082B
:10071000CE0107960E94180887E091E00E94180811
:10072000CE0143960E9418088BE091E00E941808C1
:10073000CE010D960E9418088FE091E00E941808E3
:10074000898D9A8D0E9444016A960FB6F894DEBF97
:100750000FBECDBFDF91CF911F910F910895EF9202
:10076000FF920F931F93CF93DF93CDB7DEB72A97F6
:100770000FB6F894DEBF0FBECDBF9A8389834B833B
:100780005C836D837E830F83188729873A878981ED
:100790009A81FC0180A191A19C012F5F3F4F89812B
:1007A0009A81FC0131A320A389819A81FC01E08414
:1007B000F1840285138589819A81FC0180A191A130
:1007C0000197CC01A0E0B0E0BC01CD010E94BA14B9
:1007D0009B01AC01C801B7010E947015DC01CB017F
:1007E000BC01CD012B813C814D815E810E94BE13F5
:1007F000DC01CB017C018D0189819A81FC0180A102
:1008000091A1CC01A0E0B0E0BC01CD010E94BA14DE
:100810009B01AC01C801B7010E942614DC01CB0189
:1008200029813A81F90180879187A287B3878981DD
:100830009A81FC01E484F5840685178589819A8173
:10084000FC0180A191A10197CC01A0E0B0E0BC0126
:10085000CD010E94BA149B01AC01C801B7010E94EE
:100860007015DC01CB01BC01CD012F813885498594
:100870005A850E94BE13DC01CB017C018D01898168
:100880009A81FC0180A191A1CC01A0E0B0E0BC0163
:10089000CD010E94BA149B01AC01C801B7010E94AE
:1008A0002614DC01CB0129813A81F90184879587DF
:1008B000A687B78789819A81FC0180819181A28175
:1008C000B38111E0BC01CD012B813C814D815E8162
:1008D0000E94221488230CF010E0112359F0298182
:1008E0003A818B819C81AD81BE81F90180839183A6
:1008F000A283B38389819A81FC0184819581A68139
:10090000B78111E0BC01CD012B813C814D815E811D
:100910000E946C1518160CF010E0112359F0298173
:100920003A818B819C81AD81BE81F901848395835D
:10093000A683B7832A960FB6F894DEBF0FBECDBF4D
:10094000DF91CF911F910F91FF90EF900895CF937A
:10095000DF9300D0CDB7DEB79A8389830E94340A33
:1009600089819A810E94F6000F900F90DF91CF91BC
:100970000895CF93DF9300D0CDB7DEB79A838983F4
:1009800089819A81FC0180819181A281B381BC011E
:10099000CD010F900F90DF91CF910895CF93DF930A
:1009A00000D0CDB7DEB79A83898389819A81FC0113
:1009B00084819581A681B781BC01CD010F900F90F4
:1009C000DF91CF910895CF93DF9300D0CDB7DEB7FD
:1009D0009A83898389819A81FC0180859185A2858A
:1009E000B385BC01CD010F900F90DF91CF91089599
:1009F000CF93DF9300D0CDB7DEB79A838983898107
:100A00009A81FC0184859585A685B785BC01CD01B9
:100A10000F900F90DF91CF910895CF93DF9300D087
:100A2000CDB7DEB79A83898389819A81FC011082D0
:100A300089819A81FC01118289819A81FC0112824B
:100A400089819A81FC01138289819A81FC01148237
:100A500089819A812DED37E0FC01368325830F9043
:100A60000F90DF91CF910895CF93DF93CDB7DEB78D
:100A700028970FB6F894DEBF0FBECDBF9A83898347
:100A80007C836B835E834D8338872F832B818981A1
:100A90009A81FC0122832D8189819A81FC01218325
:100AA0002F8189819A81FC01208328960FB6F894C2
:100AB000DEBF0FBECDBFDF91CF910895CF93DF93FF
:100AC000CDB7DEB72B970FB6F894DEBF0FBECDBF04
:100AD0009B878A878A859B85FC018281882F90E08D
:100AE0009E012F5F3F4FB9014AE050E00E946D1612
:100AF0008A859B85FC018181882F90E09E012C5F77
:100B00003F4FB9014AE050E00E946D168A859B85EF
:100B1000FC018081882F90E09E01295F3F4FB90141
:100B20004AE050E00E946D16CE0101960E9418081E
:100B30008AE30E94FA07CE0104960E9418088AE30D
:100B40000E94FA07CE0107960E9418088FE091E0F4
:100B50000E9418082B960FB6F894DEBF0FBECDBFCB
:100B6000DF91CF910895CF93DF9300D000D000D0D4
:100B7000CDB7DEB79C838B837E836D838B819C8115
:100B8000FC018081282F30E08D819E81820F931F90
:100B90009A83898389819A812CE330E0B9010E948C
:100BA000F315282F8B819C81FC01208389819A81F8
:100BB00021E08C3391050CF420E0222379F0898127
:100BC0009A812CE330E0B9010E94F3159B01C90121
:100BD0009C018B819C81B9010E94F70526960FB676
:100BE000F894DEBF0FBECDBFDF91CF910895CF93B4
:100BF000DF9300D000D000D0CDB7DEB79C838B83CD
:100C00007E836D838B819C81FC018181282F30E064
:100C10008D819E81820F931F9A83898389819A8116
:100C20002CE330E0B9010E94F315282F8B819C81C1
:100C3000FC01218389819A8121E08C3391050CF498
:100C400020E0222379F089819A812CE330E0B901F8
:100C50000E94F3159B01C9019C018B819C81B90104
:100C60000E944F068B819C81FC01818194E1692F58
:100C70000E94D315892F982F81E0992309F080E0F5
:100C8000882321F08FE791E00E947C0126960FB621
:100C9000F894DEBF0FBECDBFDF91CF910895CF9303
:100CA000DF9300D000D000D0CDB7DEB79C838B831C
:100CB0007E836D838B819C81FC018281282F30E0B3
:100CC0008D819E81820F931F9A83898389819A8166
:100CD00028E130E0B9010E94F315282F8B819C8117
:100CE000FC01228389819A8121E0181619060CF0F3
:100CF00020E0222379F089819A8128E130E0B9014E
:100D00000E94F3159B01C9019C018B819C81B90153
:100D10000E94930626960FB6F894DEBF0FBECDBF95
:100D2000DF91CF910895CF93DF93CDB7DEB72797AB
:100D30000FB6F894DEBF0FBECDBF9D838C837F833B
:100D40006E838FE791E00E94A7048FE791E00E94F5
:100D5000A2018C819D81FC018381282F30E08E814E
:100D60009F81820F931F9B838A838C819D81FC01CD
:100D7000848189838A819B812981222F30E02D5EA5
:100D80003E4FF9012081222F30E0B9010E94F31576
:100D90009B01C90121E0181619060CF020E022235E
:100DA00009F448C014C02A813B818981882F90E0D2
:100DB0008D5E9E4FFC018081882F90E0A901481B29
:100DC000590BCA019B838A8389818F5F89838981BB
:100DD000882F90E08D5E9E4FFC018081282F30E0AF
:100DE0008A819B8141E0281739070CF040E04423B9
:100DF000D1F68A819B818D3191052CF089818230D9
:100E000011F481E001C080E08823A1F02A813B81B8
:100E10008981882F90E08D5E9E4FFC018081882F14
:100E200090E0A901481B590BCA019B838A838981E1
:100E30008F5F89838A819B819F838E838C819D8133
:100E40002981FC01248327960FB6F894DEBF0FBEDC
:100E5000CDBFDF91CF910895CF93DF9300D000D025
:100E600000D0CDB7DEB79C838B837E836D838B816F
:100E70009C81FC018481282F30E08D819E81820F2E
:100E8000931F9A83898389819A812CE030E0B9018C
:100E90000E94F315282F8B819C81FC01248389817A
:100EA0009A8121E08C3091050CF420E0222379F026
:100EB00089819A812CE030E0B9010E94F3159B01F1
:100EC000C9019C018B819C81B9010E947007269603
:100ED0000FB6F894DEBF0FBECDBFDF91CF9108955E
:100EE000CF93DF9300D000D000D0CDB7DEB79C8386
:100EF0008B837E836D838B819C81FC012581368170
:100F00008D819E81820F931F9A83898389819A8123
:100F10009C018B819C81FC013683258326960FB62C
:100F2000F894DEBF0FBECDBFDF91CF910895CF9370
:100F3000DF9300D0CDB7DEB79A83898389819A8108
:100F4000FC0180810F900F90DF91CF910895CF9396
:100F5000DF9300D0CDB7DEB79A83898389819A81E8
:100F6000FC0181810F900F90DF91CF910895CF9375
:100F7000DF9300D0CDB7DEB79A83898389819A81C8
:100F8000FC0182810F900F90DF91CF910895CF9354
:100F9000DF9300D0CDB7DEB79A83898389819A81A8
:100FA000FC0183818F5F0F900F90DF91CF910895A7
:100FB000CF93DF9300D0CDB7DEB79A838983898141
:100FC0009A81FC0184818F5F0F900F90DF91CF9108
:100FD0000895CF93DF9300D0CDB7DEB79A8389838E
:100FE00089819A81FC01858196810F900F90DF9114
:100FF000CF910895CF93DF930F92CDB7DEB789835A
:10100000000080EC90E0FC018081882F90E08072ED
:10101000907021E0009709F020E0222391F786EC00
:1010200090E02981FC0120830F90DF91CF910895FA
:10103000CF93DF9300D00F92CDB7DEB79B838A8327
:1010400019820EC08981882F90E02A813B81820F0E
:10105000931FFC0180810E94FA0789818F5F898339
:101060008981882F90E02A813B81820F931FFC01A8
:10107000908181E0992309F480E0882319F70F908B
:101080000F900F90DF91CF910895CF93DF93CDB75D
:10109000DEB769970FB6F894DEBF0FBECDBF1982D9
:1010A0001A8281E08B8330C18A81882F90E0823060
:1010B000910509F46FC0833091053CF4009791F0DD
:1010C0008130910509F456C01CC18430910509F4A2
:1010D000E1C0843091050CF4BAC08530910509F463
:1010E000E0C00FC18FE191E00E94180881E08A837F
:1010F0000BC1000080EC90E0FC018081882334F07B
:1011000080917601882311F081E001C080E088237E
:1011100089F7809176018823D9F186EC90E0FC0173
:1011200080818E838981882F90E09E01235F3F4FCD
:10113000820F931F2E81FC01208389818F5F898319
:101140008E818E3219F08E81882371F48981882FE7
:1011500090E09E01235F3F4F820F931FFC0110829E
:101160001B8282E08A8306C089818A3018F084E07D
:101170008A831B828B81882331F0809176018823BA
:1011800011F081E001C080E0882309F0B2CFBCC03B
:101190000000BAC083E08A83CE010D9624E231E0DC
:1011A000B90146E050E00E945716009721F481E013
:1011B00080937501A9C0CE010D962BE231E0B901F3
:1011C00043E050E00E945716009729F48FE291E027
:1011D0000E94180899C0CE010D9623E431E0B901B0
:1011E00045E050E00E945716009739F489E491E0F9
:1011F0000E9418080E94340A87C0CE010D9623E58C
:1012000031E0B90146E050E00E945716009721F402
:1012100081E08093770178C0CE010D9629E531E019
:10122000B90145E050E00E945716009729F488E77D
:1012300091E00E945E0568C084E58D8781E0882387
:1012400019F085E08A8360C084E08A835DC01D82D6
:101250001C821D821C820FC08981882F90E09E0114
:10126000235F3F4F820F931FFC0110828C819D8171
:1012700001969D838C838981282F30E041E08C8109
:101280009D81821793070CF040E0442329F71092C8
:1012900076013AC08FE591E00E94180883E08A83C6
:1012A00033C08E858F8B8F85888F198ECE014796A0
:1012B0000E942E1698878F8388898F8B8989888FC3
:1012C000CE0147960E942E169A8789878A898F8B2E
:1012D0008B89888FCE0147960E942E169C878B871C
:1012E00088E791E06F81788549855A852B853C8513
:1012F0000E94340588E791E00E945E0583E08A83BE
:1013000003C01092760100009091760181E099234C
:1013100009F480E0882309F0C7CE69960FB6F894E7
:10132000DEBF0FBECDBFDF91CF910895CF93DF9386
:10133000CDB7DEB767970FB6F894DEBF0FBECDBF4F
:101340008F8B8F89882F90E0880F991F880F991FA6
:101350009C01220F331F220F331F820F931F04960D
:101360009A83898389819A810E9491169C838B83B9
:1013700089819A8102960E9491169E838D8389812C
:101380009A8104960E948B16DC01CB018F8398878B
:10139000A987BA8789819A8108960E948B16DC01F9
:1013A000CB018B879C87AD87BE8789819A810C96FC
:1013B0000E948B16DC01CB018F87988BA98BBA8B8F
:1013C00089819A8140960E948B16DC01CB018B8B20
:1013D0009C8BAD8BBE8B89819A8144979A8389833C
:1013E00089819A812B813C81B9010E94B51689813E
:1013F0009A8102962D813E81B9010E94B51689819C
:101400009A8104962F81388549855A85BA01A901A8
:101410000E94A91689819A8108962B853C854D8565
:101420005E85BA01A9010E94A91689819A810C964C
:101430002F85388949895A89BA01A9010E94A916BC
:1014400089819A8140962B893C894D895E89BA01B0
:10145000A9010E94A91667960FB6F894DEBF0FBEC9
:10146000CDBFDF91CF9108950F931F93CF93DF935B
:1014700000D000D0CDB7DEB78091A601882329F433
:1014800080E090E00E94831689838981883220F46D
:101490008091A601882331F18091A601882319F457
:1014A00081E08093A60181E090E00E9483168C8306
:1014B0008C81882F90E0880F991F880F991F9C01BD
:1014C000220F331F220F331F820F931F04969B831B
:1014D0008A838C818F5F8C8381E090E06C810E9495
:1014E000971619C08981882F90E0880F991F880F5F
:1014F000991F9C01220F331F220F331F820F931F4E
:1015000004969B838A8389818F5F898380E090E042
:1015100069810E9497160A811B8188E791E00E94E9
:10152000C707882F90E0A0E0B0E0BC01CD010E9489
:10153000BA14DC01CB01BC01CD010E948E14DC0188
:10154000CB019C01C801B9010E94B5168A819B811B
:1015500002968C0188E791E00E94D807882F90E0DE
:10156000A0E0B0E0BC01CD010E94BA14DC01CB01C7
:10157000BC01CD010E948E14DC01CB019C01C8018D
:10158000B9010E94B5168A819B8104968C018FE770
:1015900091E00E94CE049B01AC01C801BA01A901EF
:1015A0000E94A9168A819B8108968C018FE791E0A1
:1015B0000E94B9049B01AC01C801BA01A9010E94B3
:1015C000A9168A819B810C968C018FE791E00E947D
:1015D000E3049B01AC01C801BA01A9010E94A9164C
:1015E0008A819B8140968C018FE791E00E94F804EC
:1015F0009B01AC01C801BA01A9010E94A9160F9074
:101600000F900F900F90DF91CF911F910F91089540
:10161000CF93DF9300D000D0CDB7DEB78C8380E0CE
:1016200090E00E9483168B838C81882F90E0019636
:101630009A83898308C089810E94960989819A8149
:1016400001969A8389838B81282F30E041E089813C
:101650009A81281739070CF440E0442361F78B8105
:1016600081508B8380E090E06B810E9497160F90F1
:101670000F900F900F90DF91CF910895CF93DF934C
:101680000F92CDB7DEB70E94700B84E10E94960BDB
:1016900084E00E94C40B0E941C0C82E090E00E9437
:1016A0002C130E94700B85E10E94960B0E94F20B96
:1016B00089830E941C0C89810F90DF91CF9108953E
:1016C000CF93DF93CDB7DEB788EB90E021E0FC014C
:1016D000208389EB90E0FC011082DF91CF91089587
:1016E000CF93DF93CDB7DEB78CEB90E024EAFC011B
:1016F000208300008CEB90E0FC0180818095881FA6
:101700008827881F8823B1F789EB90E0FC0180814E
:10171000882F90E0887F907021E08830910509F44F
:1017200020E0222389F7DF91CF910895CF93DF93B3
:101730000F92CDB7DEB789838BEB90E02981FC0156
:1017400020838CEB90E024E8FC01208300008CEBEC
:1017500090E0FC0180818095881F8827881F88235E
:10176000B1F789EB90E0FC018081882F90E0887FC1
:10177000907021E08034910509F420E0222389F75C
:101780000F90DF91CF910895CF93DF930F92CDB754
:10179000DEB789838BEB90E02981FC0120838CEB01
:1017A00090E024E8FC01208300008CEB90E0FC0139
:1017B00080818095881F8827881F8823B1F789EB4F
:1017C00090E0FC018081882F90E0887F907021E07C
:1017D0008832910509F420E0222389F70F90DF91E8
:1017E000CF910895CF93DF93CDB7DEB78CEB90E028
:1017F00024E8FC01208300008CEB90E0FC01808158
:101800008095881F8827881F8823B1F789EB90E08F
:10181000FC018081882F90E0887F907021E08835DE
:10182000910509F420E0222389F78BEB90E0FC017D
:101830008081DF91CF910895CF93DF93CDB7DEB74D
:101840008CEB90E024E9FC01208300008CEB90E01D
:10185000FC018081882F90E08071907021E00097DA
:1018600009F020E0222391F7DF91CF9108951F9294
:101870000F920FB60F9211242F933F934F935F93C4
:101880006F937F938F939F93AF93BF93EF93FF9348
:10189000CF93DF93CDB7DEB7F89488E290E028E2EB
:1018A00030E0F90120812061FC01208388EC90E088
:1018B0000E945C1381E0809376017894DF91CF9150
:1018C000FF91EF91BF91AF919F918F917F916F9118
:1018D0005F914F913F912F910F900FBE0F901F90EE
:1018E00018951F920F920FB60F9211242F933F93CA
:1018F0004F935F936F937F938F939F93AF93BF9318
:10190000EF93FF93CF93DF93CDB7DEB7F894809139
:10191000A2019091A30121E08F31910508F420E00C
:1019200001969093A3018093A201222379F088E786
:1019300091E061E070E00E94B3051092A301109263
:10194000A20186E290E028E0FC01208380917601EC
:10195000882391F08091A4019091A501F1E08C324F
:101960009F0750F48091A4019091A5010196909356
:10197000A5018093A40117C080917601882379F096
:101980008091A4019091A50121E08C32920738F05A
:101990001092A5011092A4011092760104C0109239
:1019A000A5011092A4017894DF91CF91FF91EF915E
:1019B000BF91AF919F918F917F916F915F914F9167
:1019C0003F912F910F900FBE0F901F9018950F937E
:1019D0001F93CF93DF93CDB7DEB7C456D0400FB679
:1019E000F894DEBF0FBECDBF0E94990E83E390E056
:1019F0000E94C00E0E940E130E94940F0E94600B62
:101A0000789482E090E00E942C1388E290E028E233
:101A100030E0F90120812068FC012083809176016B
:101A2000882359F00E94450888E290E028E230E0DF
:101A3000F90120812F7EFC01208381E090E00E944B
:101A40002C13809177018823A1F08FE791E00E9409
:101A50007C018FE791E00E94F00288E791E067E067
:101A600070E040E050E020E030E00E943405109249
:101A7000770180917501882309F416C1F89488E2F2
:101A800090E028E230E0F90120812062FC0120830F
:101A90000E946912DC01CB018B839C83AD83BE83E2
:101AA00083E390E00E94CB0FDC01CB018F8398870A
:101AB000A987BA870E94C610DC01CB018B879C875F
:101AC000AD87BE870E94A111DC01CB018F87988B67
:101AD000A98BBA8B8FE791E04B855C856D857E8500
:101AE0000F85188929893A890E94AF038B819C81CF
:101AF000AD81BE81FE017396BC01CD0141E022E0C3
:101B00008F010E940C168B859C85AD85BE85FE01DC
:101B1000B396BC01CD0141E022E08F010E940C167A
:101B20008F819885A985BA85FE017B96BC01CD0180
:101B300041E022E08F010E940C168F859889A989C7
:101B4000BA89FE01BB96BC01CD0141E022E08F01C4
:101B50000E940C16CE01C3962EE631E043E0F90157
:101B600000802F5F3F4FFC010082019641504423CB
:101B7000B1F7CE01C3969E012D5E3F4FB9010E9481
:101B80004C16CE01C3969C01F90101900020E9F7A3
:101B9000CF010197821B930B9E012D5C3F4F280FB5
:101BA000391F8FE294E5A9E4B0E0F90180839183C5
:101BB000A283B383CE01C3969E01255E3F4FB90138
:101BC0000E944C16CE01C3969C01F90101900020A1
:101BD000E9F7CF010197821B930B9E012D5C3F4FCC
:101BE000280F391F8FE294E5A8E4B0E0F901808363
:101BF0009183A283B383CE01C3969E012D5D3F4F97
:101C0000B9010E944C16CE01C3969C01F9010190C6
:101C10000020E9F7CF010197821B930B9E012D5CF9
:101C20003F4F280F391F8FE298E4A5E5B0E0F90196
:101C300080839183A283B383CE01C3969E01255DE9
:101C40003F4FB9010E944C1688E290E028E230E054
:101C5000F90120812F7DFC012083CE01C3960E94D3
:101C600018088FE091E00E941808109275011A82FE
:101C700019821A8219820EC09E012D5C3F4F898104
:101C80009A81820F931FFC01108289819A810196AB
:101C90009A83898321E089819A81823391050CF0AE
:101CA00020E0222349F7789488E290E028E230E0AF
:101CB000F90120812F77FC01208381E0809374015A
:101CC000109273011092720183E590E026E0FC010E
:101CD000208383E590E023E530E0F9012081216055
:101CE000FC0120830AC08895809172019091730154
:101CF000019690937301809372019091760181E037
:101D0000992309F080E0882371F783E590E0FC01D6
:101D100010821092740188E290E028E230E0F9012C
:101D200020812068FC0120838AE090E00E945C13FF
:101D300075CECF93DF93CDB7DEB781E290E0FC01A3
:101D4000108284E290E0FC01108287E290E0FC01C6
:101D500010828AE290E0FC01108282E290E0FC01B5
:101D6000108285E290E0FC01108288E290E0FC01A4
:101D700010828BE290E0FC011082DF91CF910895F8
:101D8000CF93DF9300D000D000D0CDB7DEB79E83D5
:101D90008D8384EC90E02D81FC01208385EC90E024
:101DA0002D813E81232F3327FC01208381EC90E09D
:101DB00028E1FC01208382EC90E026E0FC012083F6
:101DC00087E290E027E230E0F9012081286FFC01F2
:101DD000208384E090E09A8389831DC088E290E0AC
:101DE00028E230E0F9012081422F21E030E0098033
:101DF00002C0220F331F0A94E2F7242BFC01208338
:101E000088EC90E00E945C130E940E1389819A81F5
:101E100001969A83898321E089819A81883091058E
:101E20000CF020E02223D1F687E090E09C838B83A6
:101E30001DC088E290E028E230E0F9012081422FC5
:101E400021E030E00B8002C0220F331F0A94E2F73A
:101E5000242BFC01208388EC90E00E945C130E94FC
:101E60000E138B819C8101979C838B8321E08B8156
:101E70009C81843091050CF420E02223D1F684E289
:101E800090E024E230E0F9012081206BFC01208306
:101E900085E290E025E230E0F90120812069FC0133
:101EA000208385E290E025E230E0F90120812F7B5C
:101EB000FC01208385E290E025E230E0F9012081F9
:101EC0002F7DFC0120838CE490E02CE430E0F901CC
:101ED00020812365FC01208384E690E024E630E045
:101EE000F90120812D6FFC01208389E690E029E62D
:101EF00030E0F90120812063FC0120838DE390E034
:101F000024E0FC012083109274011092750110925C
:101F100076011092770126960FB6F894DEBF0FBEB9
:101F2000CDBFDF91CF910895CF93DF93CDB7DEB7CB
:101F3000F89484E690E024E630E0F90120812F7BDC
:101F4000FC01208381E090E00E945C1381EB90E033
:101F500021EB30E0F90120812760FC01208386EB32
:101F600090E0FC018081882F90E08171907021E0E9
:101F7000009709F420E0222391F787E390E021E025
:101F8000FC01208380E790E021E0FC01208378942D
:101F9000DF91CF910895CF93DF93CDB7DEB7289728
:101FA0000FB6F894DEBF0FBECDBF98878F831A821D
:101FB000198284E690E024E630E0F90120812F7E4A
:101FC000FC0120838AE090E00E945C138CEC90E09E
:101FD000FC01118210828AE290E02AE230E0F901ED
:101FE00020812063FC0120838BE290E02BE230E033
:101FF000F90120812063FC0120838AEC90E020EC31
:10200000FC01208389EC90E028E1FC0120838CEC2A
:1020100090E02F81FC0120838DEC90E02F813885AA
:10202000232F3327FC012083000088EC90E0FC0183
:102030008081882F90E08072907021E0009709F0F5
:1020400020E0222391F78BE290E02BE230E0F901CF
:1020500020812F7DFC0120838EEC90E0FC0110821A
:10206000000088EC90E0FC0180818095881F882723
:10207000881F8823B1F78EEC90E0FC018081882FC7
:1020800090E0982F88279A8389838EEC90E0FC015A
:102090001082000088EC90E0FC0180818095881F10
:1020A0008827881F8823B1F78EEC90E0FC0180819F
:1020B000882F90E029813A81822B932B9A83898300
:1020C0008BE290E02BE230E0F90120812063FC01FB
:1020D00020838AEC90E0FC01108289EC90E0FC0106
:1020E000108288EC90E0FC0110828CEC90E0FC0106
:1020F00010828DEC90E0FC01108284E690E024E6F2
:1021000030E0F90120812061FC01208389819A81DE
:102110009695879596958795CC01A0E0B0E0BC0197
:10212000CD010E94BA14DC01CB01BC01CD0120E03D
:1021300030E040E05DE30E947015DC01CB01BC01A2
:10214000CD0126E636E646EE5FE30E947015DC011F
:10215000CB01BC01CD0120E030E040E052E40E9420
:10216000BE13DC01CB018B839C83AD83BE838B814B
:102170009C81AD81BE81BC01CD0128960FB6F8943B
:10218000DEBF0FBECDBFDF91CF910895CF93DF9318
:10219000CDB7DEB728970FB6F894DEBF0FBECDBF20
:1021A0001C821B8280E090E0DC018D839E83AF83E4
:1021B000B88784E690E024E630E0F90120812E7FA4
:1021C000FC0120838CE790E02CE730E0F9012081CE
:1021D0002264FC0120838AE790E02AE730E0F901DD
:1021E00020812768FC0120838EE790E02BEFFC0123
:1021F00020838AE090E00E945C131A8219821CC03E
:102200008AE790E02AE730E0F90120812064FC01B0
:1022100020838AE790E0FC018081882F90E0807421
:10222000907021E0009709F420E0222391F7898142
:102230009A8101969A83898321E089819A818230EB
:1022400091050CF020E02223D9F688E790E0FC010C
:102250008081882F90E09C838B8389E790E0FC014C
:102260008081882F90E0982F88272B813C81822BBA
:10227000932B9C838B838AE790E0FC0110828CE790
:1022800090E0FC0110828EE790E02EE730E0F9014B
:1022900020812460FC01208384E690E024E630E085
:1022A000F90120812160FC01208322EF32E08B8143
:1022B0009C81A901481B590BCA019C838B838B818C
:1022C0009C81CC01A0E0B0E0BC01CD010E94BA1419
:1022D000DC01CB01BC01CD0128E431EE4CE151E43D
:1022E0000E942614DC01CB018D839E83AF83B887C7
:1022F0006D817E818F81988526E636E646EE5FE326
:102300000E947015DC01CB01BC01CD0120E030E062
:1023100040E052E40E94BE13DC01CB018D839E831A
:10232000AF83B8878D819E81AF81B885BC01CD0117
:1023300028960FB6F894DEBF0FBECDBFDF91CF91C8
:102340000895CF93DF93CDB7DEB728970FB6F894F3
:10235000DEBF0FBECDBF84E690E024E630E0F90199
:1023600020812E7FFC0120838AE090E00E945C1394
:102370008CE790E02CE730E0F90120812164FC013A
:1023800020838AE790E02AE730E0F901208127687E
:10239000FC0120838EE790E02DEFFC0120838AE092
:1023A00090E00E945C131A8219821CC08AE790E0B8
:1023B0002AE730E0F90120812064FC0120838AE7CC
:1023C00090E0FC018081882F90E08074907021E083
:1023D000009709F420E0222391F789819A810196E0
:1023E0009A83898321E089819A81823091050CF05A
:1023F00020E02223D9F688E790E0FC018081882F35
:1024000090E09C838B8389E790E0FC018081882F9A
:1024100090E0982F88272B813C81822B932B9C83E3
:102420008B838AE790E0FC0110828CE790E0FC014E
:1024300010828EE790E02EE730E0F90120812260E3
:10244000FC01208384E690E024E630E0F90120815D
:102450002160FC0120838B819C81CC01A0E0B0E055
:10246000BC01CD010E94BA14DC01CB018D839E8397
:10247000AF83B8876D817E818F81988520E030E0C1
:102480004BE153E40E94BD13DC01CB018D839E839D
:10249000AF83B8876D817E818F81988523E738E689
:1024A0004DE950E40E942614DC01CB018D839E830C
:1024B000AF83B8878D819E81AF81B885BC01CD0186
:1024C00028960FB6F894DEBF0FBECDBFDF91CF9137
:1024D0000895CF93DF9300D000D000D0CDB7DEB702
:1024E0001A82198284E690E024E630E0F901208126
:1024F0002B7FFC0120838AE090E00E945C1385E240
:1025000090E025E230E0F90120812F7EFC0120835C
:102510008EE490E0FC01108200008DE490E0FC016C
:1025200080818095881F8827881F8823B1F78EE4D3
:1025300090E0FC018081882F90E0982F88279A8373
:1025400089838EE490E0FC01108200008DE490E02D
:10255000FC0180818095881F8827881F8823B1F718
:102560008EE490E0FC018081882F90E029813A81FF
:10257000822B932B9A83898384E690E024E630E0D3
:10258000F90120812460FC01208385E290E025E2AE
:1025900030E0F90120812069FC0120838AE090E08D
:1025A0000E945C1389819A81CC01A0E0B0E0BC015B
:1025B000CD010E94BA14DC01CB01BC01CD0120E0A9
:1025C00030E040E05DE30E947015DC01CB01BC010E
:1025D000CD0126E636E646EE5FE30E947015DC018B
:1025E000CB01BC01CD0120E030E040E052E40E948C
:1025F000BE13DC01CB018B839C83AD83BE838B81B7
:102600009C81AD81BE81BC01CD0126960FB6F894A8
:10261000DEBF0FBECDBFDF91CF910895CF93DF9383
:1026200000D0CDB7DEB788E290E0FC01908180EF6A
:102630008927882F90E09A83898388E290E028E2B6
:1026400030E0F901308129812323FC0120830F90A0
:102650000F90DF91CF910895CF93DF9300D000D0FA
:10266000CDB7DEB79C838B8388E791E00E94970704
:10267000282F30E08B819C81820F931F2CE330E068
:10268000B9010E94DF159A838983000088E791E0F1
:102690000E949707282F30E041E089819A8128170E
:1026A000390709F440E0442389F70F900F900F9009
:1026B0000F90DF91CF910895CF93DF9300D000D09A
:1026C000CDB7DEB79C838B8318C01A82198206C0EF
:1026D000000089819A8101969A83898321E089810A
:1026E0009A8131E08039930708F020E0222381F7B6
:1026F0008B819C8101979C838B8321E08B819C81C2
:10270000009709F420E0222301F70F900F900F901B
:102710000F90DF91CF910895CF93DF9300D000D039
:10272000CDB7DEB79A8389837C836B8389819A8155
:102730008130910571F48B819C812FEF8F3F92073F
:1027400041F488E791E00E940D058FE791E00E9437
:10275000E6000F900F900F900F90DF91CF910895AA
:10276000CF93DF93CDB7DEB781E090E06FEF7FEFDF
:102770000E948C13DF91CF9108955058BB27AA2750
:102780000ED070C161D130F066D120F031F49F3F9E
:1027900011F41EF456C10EF4E095E7FB4CC1E92F8D
:1027A00072D180F3BA17620773078407950718F090
:1027B00071F49EF58AC10EF4E0950B2EBA2FA02D70
:1027C0000B01B90190010C01CA01A0011124FF27DE
:1027D000591B99F0593F50F4503E68F11A16F040D9
:1027E000A22F232F342F4427585FF3CF46953795D8
:1027F0002795A795F0405395C9F77EF41F16BA0B9D
:10280000620B730B840BBAF09150A1F0FF0FBB1F4A
:10281000661F771F881FC2F70EC0BA0F621F731F93
:10282000841F48F4879577956795B795F7959E3FF0
:1028300008F0B3CF9395880F08F09927EE0F97957E
:1028400087950895D4D008F481E008950CD00AC18A
:1028500002D140F0F9D030F021F45F3F19F0EBC025
:10286000511134C1EEC00FD198F39923C9F3552308
:10287000B1F3951B550BBB27AA2762177307840773
:1028800038F09F5F5F4F220F331F441FAA1FA9F329
:1028900033D00E2E3AF0E0E830D091505040E6951B
:1028A000001CCAF729D0FE2F27D0660F771F881F7C
:1028B000BB1F261737074807AB07B0E809F0BB0B6B
:1028C000802DBF01FF2793585F4F2AF09E3F51058F
:1028D00068F0B1C0FBC05F3FECF3983EDCF3869537
:1028E00077956795B795F7959F5FC9F7880F911D05
:1028F0009695879597F90895E1E0660F771F881FF1
:10290000BB1F621773078407BA0720F0621B730BA3
:10291000840BBA0BEE1F88F7E0950895BCD088F0C1
:102920009F5790F0B92F9927B751A0F0D1F0660FBB
:10293000771F881F991F1AF0BA95C9F712C0B130D6
:1029400081F0C3D0B1E00895C0C0672F782F8827E9
:10295000B85F39F0B93FCCF3869577956795B39515
:10296000D9F73EF490958095709561957F4F8F4F84
:102970009F4F0895E89409C097FB3EF49095809589
:10298000709561957F4F8F4F9F4F9923A9F0F92F35
:1029900096E9BB279395F695879577956795B795B3
:1029A000F111F8CFFAF4BB0F11F460FF1BC06F5F99
:1029B0007F4F8F4F9F4F16C0882311F096E911C0AB
:1029C000772321F09EE8872F762F05C0662371F0CC
:1029D00096E8862F70E060E02AF09A95660F771FE0
:1029E000881FDAF7880F9695879597F90895990FBC
:1029F0000008550FAA0BE0E8FEEF16161706E807C9
:102A0000F907C0F012161306E407F50798F0621BE9
:102A1000730B840B950B39F40A2661F0232B242BBE
:102A2000252B21F408950A2609F4A140A6958FEFDD
:102A3000811D811D089597F99F6780E870E060E02F
:102A400008959FEF80EC089500240A941616170647
:102A500018060906089500240A941216130614068F
:102A600005060895092E0394000C11F4882352F0F2
:102A7000BB0F40F4BF2B11F460FF04C06F5F7F4FAA
:102A80008F4F9F4F089557FD9058440F551F59F091
:102A90005F3F71F04795880F97FB991F61F09F3F4B
:102AA00079F087950895121613061406551FF2CF74
:102AB0004695F1DF08C0161617061806991FF1CFC4
:102AC00086957105610508940895E894BB276627EB
:102AD0007727CB0197F908958ADF08F48FEF0895DF
:102AE0000BD0C0CFB1DF28F0B6DF18F0952309F086
:102AF000A2CFA7CF1124EACFC6DFA0F3959FD1F3D1
:102B0000950F50E0551F629FF001729FBB27F00D9B
:102B1000B11D639FAA27F00DB11DAA1F649F6627F0
:102B2000B00DA11D661F829F2227B00DA11D621F3F
:102B3000739FB00DA11D621F839FA00D611D221FF9
:102B4000749F3327A00D611D231F849F600D211DDD
:102B5000822F762F6A2F11249F5750408AF0E1F080
:102B600088234AF0EE0FFF1FBB1F661F771F881FC9
:102B700091505040A9F79E3F510570F05CCFA6CF11
:102B80005F3FECF3983EDCF3869577956795B795B4
:102B9000F795E7959F5FC1F7FE2B880F911D9695DE
:102BA000879597F90895991B79E004C0991F9617A6
:102BB00008F0961B881F7A95C9F780950895AA1B7F
:102BC000BB1B51E107C0AA1FBB1FA617B70710F018
:102BD000A61BB70B881F991F5A95A9F7809590954A
:102BE000BC01CD01089597FB092E07260AD077FD79
:102BF00004D0E5DF06D000201AF4709561957F4F70
:102C00000895F6F7909581959F4F0895EE0FFF1F59
:102C10000590F491E02D0994EF920F931F93CF93B9
:102C2000322FC02F47FF02C0A4E101C0A4E0E42F6F
:102C3000FF27E7FDF095F7FF03C0F095E195FF4F03
:102C40004C2F512F2E2F032FEA2E0E94BB168C2FB4
:102C5000912FCF911F910F91EF900895FC0188273C
:102C60009927E89421912032E9F3293010F02E3091
:102C7000C8F32B3241F02D3239F4689404C00E941D
:102C80006516820F911D219120532A30C0F31EF446
:102C9000909581959F4F0895FB01DC010D900020D8
:102CA000E9F7119701900D920020E1F70895FB01DB
:102CB000DC014150504030F08D910190801919F4A1
:102CC0000020B9F7881B990B08957AE0979F902D03
:102CD000879F802D910D11240895FB019F014230A3
:102CE00074F0453264F4642F77270E94DF15805D0D
:102CF0008A330CF0895D8193CB010097A1F7108294
:102D0000C9010C94EB18F999FECF92BD81BDF89AD8
:102D1000992780B50895A6E1B0E044E050E00C9416
:102D2000FD18A8E1B0E042E050E00C94FD18262F19
:102D3000F999FECF92BD81BDF89A019700B40216B1
:102D400039F01FBA20BD0FB6F894FA9AF99A0FBE5F
:102D500008950396272F0E9498160E949716252FF4
:102D60000E949816242F0C9498160196272F0E94E3
:102D700098160C949716A9E0B0E0E1ECF6E10C94FB
:102D80000F196A01122FF02E2BE3201718F0B02E26
:102D9000B39402C03CE3B32EAE014F5F5F4F27E018
:102DA0000B2D0E941318BC01A981B0E0CD018970E0
:102DB00090708130910531F0E1FC06C0E0FE06C064
:102DC00040E205C04DE203C04BE201C040E0A3FF7A
:102DD00036C0442311F084E001C083E0811710F471
:102DE000181B01C010E0E4FC0BC0912FF60180E23B
:102DF00002C0819391509923E1F7C10ED11C10E0DC
:102E0000442319F0F60141936F01E2FE05C08EE400
:102E1000F601808391E404C08EE6F601808391E69A
:102E20009183828383E090E0C80ED91E812FF60142
:102E300090E202C0919381508823E1F73AC0A2FF4B
:102E40003FC0442311F084E001C083E0811710F4F7
:102E5000181B01C010E0E4FC0BC0912FF60180E2CA
:102E600002C0819391509923E1F7C10ED11C10E06B
:102E7000442319F0F60141936F01E2FE07C089E493
:102E8000F60180838EE4818386E406C089E6F6013C
:102E900080838EE6818386E6828383E090E0C80E9D
:102EA000D91E812FF60190E202C0919381508823B0
:102EB000E1F7C10ED11CF60110828EEF9FEFAFC07B
:102EC00021E030E0442311F420E030E0161617062C
:102ED0001CF4CB01019602C081E090E0280F391F5D
:102EE000FF2021F08F2D90E0019602C080E090E05D
:102EF000820F931F212F30E0821793071CF4512F6C
:102F0000581B01C050E08E2D90E09C012071307064
:102F1000E4FC0DC0E3FC0BC0852FF60190E202C07B
:102F2000919381508823E1F7C50ED11C50E04423D2
:102F300019F0F60141936F012115310559F4852FE0
:102F4000F60190E302C0919381508823E1F7C50E0A
:102F5000D11C50E0B60E4A8120E1622E712C6A220B
:102F60007B22A4FF03C0413309F4BA941B142CF450
:102F70008B2D893018F088E001C081E09B0177FF3C
:102F800002C020E030E0A0E0B0E09EE2E92E4B017C
:102F9000881A9108CB01821B930B8E010F5F1F4F84
:102FA000080F191F8F2D90E0AA24BB24A81AB90A74
:102FB000FFEF2F3F3F0719F4F601E1926F0162170F
:102FC000730744F0821693062CF4F801EA0FFB1FF6
:102FD000818101C080E32150304011962A153B05C4
:102FE00024F0F60181936F01E3CF2617370741F4F0
:102FF000463328F4453321F46114710409F481E364
:10300000F6018193852FDF0190E202C09D938150EC
:103010008823E1F7E50FF11D108280E090E029960A
:10302000EEE00C942B19283008F027E03327DA0162
:10303000990F311D87FD916000966105710539F486
:1030400032602E5F3D9330E32A95E1F708959F3F6C
:1030500030F080387105610509F03C5F3C5F3D93BD
:10306000913008F08068911DDF93CF931F930F93E9
:10307000FF92EF92192F987F9695E92F9695969546
:10308000E90FFF27EA52FF4F99273327EE24FF2449
:10309000A701E70105900894079428F4360FE71E6E
:1030A000F81E491F511D660F771F881F991F069430
:1030B000A1F70590079428F4E70EF81E491F561F44
:1030C000C11D770F881F991F661F0694A1F70590F1
:1030D000079428F4F80E491F561FC71FD11D880FEB
:1030E000991F661F771F0694A1F70590079420F497
:1030F000490F561FC71FD81F990F661F771F881FBC
:103100000694A9F784911095177041F0D695C7954C
:1031100057954795F794E7941A95C1F7ECE7F0E0D7
:1031200068941590159135916591959105907FE280
:103130007395E118F10A430B560BC90BD009C0F780
:10314000E10CF11E431F561FC91FD01D7EF47033C2
:1031500011F48A95E6CFE894015030F0080F0AF494
:103160000027021708F4202F2395022F7A3328F026
:1031700079E37D932A95E9F710C07D932A9589F626
:10318000069497956795379517951794E118F10A66
:10319000430B560BC90BD00998F023957E9173957C
:1031A0007A3308F070E37C932013B8F77E91706156
:1031B0007D9330F0839571E37D9370E32A95E1F779
:1031C0001124EF90FF900F911F91CF91DF919927DC
:1031D00087FD90950895DC01FC01672F719177239D
:1031E000E1F7329704C07C916D9370836291AE17C2
:1031F000BF07C8F30895DC01CB01FC01F999FECFAC
:1032000006C0F2BDE1BDF89A319600B40D9241506E
:103210005040B8F708952F923F924F925F926F926D
:103220007F928F929F92AF92BF92CF92DF92EF9256
:10323000FF920F931F93CF93DF93CDB7DEB7CA1BD7
:10324000DB0B0FB6F894DEBF0FBECDBF09942A8802
:10325000398848885F846E847D848C849B84AA84AA
:10326000B984C884DF80EE80FD800C811B81AA8137
:10327000B981CE0FD11D0FB6F894DEBF0FBECDBF02
:08328000ED010895F894FFCF61
:103288005748002F574C002F5754002F57680058A5
:103298005858001F1C1F1E1F1E1F1F1E1F1E1F41C8
:1032A800434B2E0053544154532E0048692E004876
:1032B800656C6C6F20526173706265727279205010
:1032C800692100736176652E00536176696E672EF9
:1032D8002E2E005745454B2E0074696D652E0055FE
:1032E8006E6B6E6F776E2071756572792E00414432
:0232F8000000D4
:00000001FF
