:100000000C94BC000C94E4000C94E4000C94FB07EA
:100010000C94E4000C94E4000C94E4000C94E400D0
:100020000C94E4000C94E4000C94E4000C94350867
:100030000C94E4000C94E4000C94E4000C94E400B0
:100040000C94E4000C94E4000C94E4000C94E400A0
:100050000C94E4000C94E4000C94E4000C94E40090
:100060000C94E4000C94E4000C94E4000C94E40080
:100070000C94E4000C94E4000C94E40000407A102A
:10008000F35A00A0724E18090010A5D4E80000E849
:100090007648170000E40B54020000CA9A3B0000A7
:1000A00000E1F505000080969800000040420F0036
:1000B0000000A08601000000102700000000E803F7
:1000C000000000006400000000000A0000000000C2
:1000D0000100000000002C76D888DC674F0823DF81
:1000E000C1DFAE59E1B1B796E5E3E453C63AE65154
:1000F000997696E8E6C28426EB898C9B62ED407C7B
:100100006FFCEFBC9C9F40F2BAA56FA5F490055A16
:100110002AF75C936B6CF9676DC11BFCE0E40D473B
:10012000FEF520E6B500D0ED902E0300943577055E
:100130000080841E080000204E0A000000C80C3316
:100140003333330F986E12831141EF8D2114893BA5
:10015000E65516CFFEE6DB18D1844B381BF77C1D25
:10016000901DA4BBE424203284725E228100C9F178
:1001700024ECA1E53D278D0F11241FBECFEFD8E061
:10018000DEBFCDBF11E0A0E0B1E0E2E9F9E202C0DC
:1001900005900D92AE36B107D9F711E0AEE6B1E0A9
:1001A00001C01D92A139B107E1F711E0C8E7D1E024
:1001B00004C02297FE010E94D911C637D107C9F7A2
:1001C0000E94C7080C94C7140C940000CF93DF93CF
:1001D0000F92CDB7DEB78983000080EC90E0FC0180
:1001E0008081882F90E08072907021E0009709F064
:1001F00020E0222391F786EC90E02981FC01208306
:100200000F90DF91CF910895CF93DF9300D00F929D
:10021000CDB7DEB79B838A8319820EC08981882F70
:1002200090E02A813B81820F931FFC0180810E9414
:10023000E60089818F5F89838981882F90E02A81F8
:100240003B81820F931FFC01908181E0992309F487
:1002500080E0882319F70F900F900F90DF91CF91D6
:100260000895CF93DF93CDB7DEB760970FB6F894BC
:10027000DEBF0FBECDBF19821A8281E08B83D9C049
:100280008A81882F90E08230910509F46BC0833019
:1002900091053CF4009771F08130910509F452C04A
:1002A000C5C08330910509F497C08430910509F4E5
:1002B000B6C0BCC080E091E00E94040181E08A8366
:1002C000B8C0000080EC90E0FC018081882334F00D
:1002D00080917201882311F081E001C080E08823C1
:1002E00089F7809172018823D9F186EC90E0FC01B6
:1002F00080818E838981882F90E09E01295F3F4F06
:10030000820F931F2E81FC01208389818F5F898357
:100310008E818E3219F08E81882371F48981882F25
:1003200090E09E01295F3F4F820F931FFC011082D6
:100330001B8282E08A8306C089818A3018F084E0BB
:100340008A831B828B81882331F0809172018823FC
:1003500011F081E001C080E0882309F0B2CF69C0CC
:10036000000067C0CE01079625E031E0B90146E004
:1003700050E00E940A12009731F481E080937101ED
:1003800083E08A8356C0CE0107962CE031E0B901A4
:1003900043E050E00E940A12009739F480E191E0B6
:1003A0000E94040183E08A8344C0CE01079624E2C0
:1003B00031E0B90145E050E00E940A12009749F48B
:1003C0008AE291E00E94040183E08A830E94F106A0
:1003D00030C084E08A832DC01D821C821D821C8255
:1003E0000FC08981882F90E09E01295F3F4F820FC7
:1003F000931FFC0110828C819D8101969D838C83CB
:100400008981282F30E041E08C819D8182179307FC
:100410000CF040E0442329F7109272010AC084E3F3
:1004200091E00E94040183E08A8303C0109272016C
:1004300000009091720181E0992309F480E0882303
:1004400009F01ECF60960FB6F894DEBF0FBECDBF89
:10045000DF91CF910895CF93DF9300D0CDB7DEB772
:100460009A83898329813A8180E090E0DC01F90157
:1004700080839183A283B38329813A8180E090E0D5
:10048000DC01F90184839583A683B78329813A81AE
:1004900080E090E0DC01F90180879187A287B38733
:1004A00029813A8180E090E0DC01F9018487958719
:1004B000A687B78789819A81FC01118A108A0F90DB
:1004C0000F90DF91CF910895CF93DF9300D0CDB7F8
:1004D000DEB79A83898329813A8180E090E0DC014C
:1004E000F90180839183A283B38329813A8180E0DB
:1004F00090E0DC01F90184839583A683B783298189
:100500003A8180E090E0DC01F90180879187A28741
:10051000B38729813A8180E090E0DC01F90184878A
:100520009587A687B78789819A81FC01118A108AED
:100530000F900F90DF91CF910895EF92FF920F935C
:100540001F93CF93DF93CDB7DEB72A970FB6F894FA
:10055000DEBF0FBECDBF9A8389834B835C836D83DF
:100560007E830F83188729873A8789819A81FC01C6
:10057000808991899C012F5F3F4F89819A81FC017D
:10058000318B208B89819A81FC01E084F184028582
:10059000138589819A81FC01808991890197CC0119
:1005A000A0E0B0E0BC01CD010E9497109B01AC011E
:1005B000C801B7010E944D11DC01CB01BC01CD0186
:1005C0002B813C814D815E810E949B0FDC01CB0120
:1005D0007C018D0189819A81FC0180899189CC01FE
:1005E000A0E0B0E0BC01CD010E9497109B01AC01DE
:1005F000C801B7010E940310DC01CB0129813A81B7
:10060000F90180879187A287B38789819A81FC014C
:10061000E484F5840685178589819A81FC018089A7
:1006200091890197CC01A0E0B0E0BC01CD010E940E
:1006300097109B01AC01C801B7010E944D11DC016C
:10064000CB01BC01CD012F81388549855A850E9497
:100650009B0FDC01CB017C018D0189819A81FC011A
:1006600080899189CC01A0E0B0E0BC01CD010E945D
:1006700097109B01AC01C801B7010E940310DC0177
:10068000CB0129813A81F90184879587A687B787AD
:1006900089819A81FC0180819181A281B38111E0DD
:1006A000BC01CD012B813C814D815E810E94FF0FF9
:1006B00088230CF010E0112359F029813A818B81B5
:1006C0009C81AD81BE81F90180839183A283B38334
:1006D00089819A81FC0184819581A681B78111E08D
:1006E000BC01CD012B813C814D815E810E9449116D
:1006F00018160CF010E0112359F029813A818B81F2
:100700009C81AD81BE81F90184839583A683B783E3
:100710002A960FB6F894DEBF0FBECDBFDF91CF9102
:100720001F910F91FF90EF900895CF93DF9300D02A
:10073000CDB7DEB79A8389830E94F10689819A81B9
:100740000E9464020F900F90DF91CF910895CF9394
:10075000DF9300D0CDB7DEB79A83898389819A81F0
:10076000FC0180819181A281B381BC01CD010F90F8
:100770000F90DF91CF910895CF93DF9300D0CDB745
:10078000DEB79A83898389819A81FC01848195816E
:10079000A681B781BC01CD010F900F90DF91CF9161
:1007A0000895CF93DF9300D0CDB7DEB79A838983C6
:1007B00089819A81FC0180859185A285B385BC01E0
:1007C000CD010F900F90DF91CF910895CF93DF93DC
:1007D00000D0CDB7DEB79A83898389819A81FC01E5
:1007E00084859585A685B785BC01CD010F900F90B6
:1007F000DF91CF910895CF93DF9300D0CDB7DEB7CF
:100800009A83898389819A81FC01108289819A81E6
:10081000FC01118289819A81FC01128289819A816D
:10082000FC01138289819A81FC01148289819A8159
:100830002DED37E0FC01368325830F900F90DF917B
:10084000CF910895CF93DF9300D000D000D0CDB7E3
:10085000DEB79C838B837E836D838B819C81FC01BF
:100860008081282F30E08D819E81820F931F9A8393
:10087000898389819A812CE330E0B9010E94C411F7
:10088000282F8B819C81FC01208389819A8121E022
:100890008C3391050CF420E0222379F089819A8130
:1008A0002CE330E0B9010E94C4119B01C9019C01F5
:1008B0008B819C81B9010E94660426960FB6F8943C
:1008C000DEBF0FBECDBFDF91CF910895CF93DF93F1
:1008D00000D000D000D0CDB7DEB79C838B837E8361
:1008E0006D838B819C81FC018181282F30E08D817B
:1008F0009E81820F931F9A83898389819A812CE339
:1009000030E0B9010E94C411282F8B819C81FC0129
:10091000218389819A8121E08C3391050CF420E0B8
:10092000222379F089819A812CE330E0B9010E9479
:10093000C4119B01C9019C018B819C81B9010E945A
:10094000AA0426960FB6F894DEBF0FBECDBFDF9186
:10095000CF910895CF93DF9300D000D000D0CDB7D2
:10096000DEB79C838B837E836D838B819C81FC01AE
:100970008281282F30E08D819E81820F931F9A8380
:10098000898389819A8128E130E0B9010E94C411EC
:10099000282F8B819C81FC01228389819A8121E00F
:1009A000181619060CF020E0222379F089819A812B
:1009B00028E130E0B9010E94C4119B01C9019C01EA
:1009C0008B819C81B9010E94EE0426960FB6F894A3
:1009D000DEBF0FBECDBFDF91CF910895CF93DF93E0
:1009E000CDB7DEB727970FB6F894DEBF0FBECDBFE9
:1009F0009D838C837F836E838AE791E00E949503B9
:100A00008C819D81FC018381282F30E08E819F8124
:100A1000820F931F9B838A838C819D81FC0184813B
:100A200089838A819B812981222F30E02D5B3E4F73
:100A3000F9012081222F30E0B9010E94C4119B01ED
:100A4000C90121E0181619060CF020E0222309F450
:100A500048C014C02A813B818981882F90E08D5B3A
:100A60009E4FFC018081882F90E0A901481B590B03
:100A7000CA019B838A8389818F5F89838981882FBB
:100A800090E08D5B9E4FFC018081282F30E08A81B1
:100A90009B8141E0821793070CF440E04423D1F698
:100AA0008A819B818D3191052CF08981823011F4EE
:100AB00081E001C080E08823A1F02A813B81898107
:100AC000882F90E08D5B9E4FFC018081882F90E005
:100AD000A901481B590BCA019B838A8389818F5FB7
:100AE00089838A819B819F838E838C819D812981CB
:100AF000FC01248327960FB6F894DEBF0FBECDBF4E
:100B0000DF91CF910895CF93DF9300D000D000D034
:100B1000CDB7DEB79C838B837E836D838B819C8175
:100B2000FC018481282F30E08D819E81820F931FEC
:100B30009A83898389819A812CE030E0B9010E94EF
:100B4000C411282F8B819C81FC01248389819A8187
:100B500021E08C3091050CF420E0222379F089818A
:100B60009A812CE030E0B9010E94C4119B01C901B7
:100B70009C018B819C81B9010E94C70526960FB606
:100B8000F894DEBF0FBECDBFDF91CF910895CF9314
:100B9000DF9300D000D000D0CDB7DEB79C838B832D
:100BA0007E836D838B819C81FC01258136818D81C3
:100BB0009E81820F931F9A83898389819A819C01E8
:100BC0008B819C81FC013683258326960FB6F89491
:100BD000DEBF0FBECDBFDF91CF910895CF93DF93DE
:100BE00000D0CDB7DEB79A83898389819A81FC01D1
:100BF00080810F900F90DF91CF910895CF93DF9375
:100C000000D0CDB7DEB79A83898389819A81FC01B0
:100C100081810F900F90DF91CF910895CF93DF9353
:100C200000D0CDB7DEB79A83898389819A81FC0190
:100C300082810F900F90DF91CF910895CF93DF9332
:100C400000D0CDB7DEB79A83898389819A81FC0170
:100C500083818F5F0F900F90DF91CF910895CF9395
:100C6000DF9300D0CDB7DEB79A83898389819A81DB
:100C7000FC0184818F5F0F900F90DF91CF910895D9
:100C8000CF93DF9300D0CDB7DEB79A838983898174
:100C90009A81FC01858196810F900F90DF91CF9111
:100CA0000895CF93DF93CDB7DEB766970FB6F8946C
:100CB000DEBF0FBECDBF8E8B8E89880F880F982F19
:100CC000990F990F890F8C5F89838981882F90E014
:100CD0000E9426129B838A838981882F90E0029646
:100CE0000E9426129D838C838981882F90E0049630
:100CF0000E942012DC01CB018E839F83A887B987D5
:100D00008981882F90E008960E942012DC01CB0197
:100D10008A879B87AC87BD878981882F90E00C9656
:100D20000E942012DC01CB018E879F87A88BB98B94
:100D30008981882F90E040960E942012DC01CB012F
:100D40008A8B9B8BAC8BBD8B8981845189838981F4
:100D5000882F90E02A813B81B9010E944A12898143
:100D6000882F90E002962C813D81B9010E944A12A1
:100D70008981882F90E004962E813F81488559858E
:100D8000BA01A9010E943E128981882F90E008963D
:100D90002A853B854C855D85BA01A9010E943E12DA
:100DA0008981882F90E00C962E853F854889598946
:100DB000BA01A9010E943E128981882F90E04096D5
:100DC0002A893B894C895D89BA01A9010E943E129A
:100DD00066960FB6F894DEBF0FBECDBFDF91CF9100
:100DE00008950F931F93CF93DF9300D000D0CDB71A
:100DF000DEB780919001882329F480E090E00E9482
:100E0000181289838981883220F480919001882387
:100E100031F180919001882319F481E08093900151
:100E200081E090E00E9418128C838C81882F90E0E2
:100E3000880F991F880F991F9C01220F331F220FC3
:100E4000331F820F931F04969B838A838C818F5F4D
:100E50008C8381E090E06C810E942C1219C0898102
:100E6000882F90E0880F991F880F991F9C01220FEF
:100E7000331F220F331F820F931F04969B838A8395
:100E800089818F5F898380E090E069810E942C12C4
:100E90000A811B8183E791E00E941E06882F90E063
:100EA000A0E0B0E0BC01CD010E949710DC01CB01B5
:100EB000BC01CD010E946B10DC01CB019C01C8017B
:100EC000B9010E944A128A819B8102968C0183E7B4
:100ED00091E00E942F06882F90E0A0E0B0E0BC01D6
:100EE000CD010E949710DC01CB01BC01CD010E9415
:100EF0006B10DC01CB019C01C801B9010E944A12B0
:100F00008A819B8104968C018AE791E00E94BC0350
:100F10009B01AC01C801BA01A9010E943E128A815D
:100F20009B8108968C018AE791E00E94A7039B01B0
:100F3000AC01C801BA01A9010E943E128A819B81BD
:100F40000C968C018AE791E00E94D1039B01AC01D1
:100F5000C801BA01A9010E943E128A819B81409674
:100F60008C018AE791E00E94E6039B01AC01C80175
:100F7000BA01A9010E943E120F900F900F900F909E
:100F8000DF91CF911F910F910895CF93DF9300D000
:100F900000D0CDB7DEB78C8380E090E00E941812BD
:100FA0008B838C81882F90E001969A83898308C077
:100FB00089810E94510689819A8101969A83898349
:100FC0008B81282F30E041E089819A8128173907E9
:100FD0000CF440E0442361F78B8181508B8380E0E7
:100FE00090E06B810E942C120F900F900F900F9049
:100FF000DF91CF9108951F920F920FB60F92112497
:101000002F933F934F935F936F937F938F939F9310
:10101000AF93BF93EF93FF93CF93DF93CDB7DEB73B
:10102000F89488E290E028E230E0F9012081206124
:10103000FC01208388EC90E00E94390F81E08093CE
:1010400072017894DF91CF91FF91EF91BF91AF91B1
:101050009F918F917F916F915F914F913F912F91D0
:101060000F900FBE0F901F9018951F920F920FB602
:101070000F9211242F933F934F935F936F937F931E
:101080008F939F93AF93BF93EF93FF93CF93DF9390
:101090000F92CDB7DEB7F89480918C0190918D01BD
:1010A0008E31910550F488E290E028E230E0F901B9
:1010B00020812860FC01208309C088E290E028E2BA
:1010C00030E0F9012081277FFC01208380918C0191
:1010D00090918D0121E08C33910508F420E0019678
:1010E00090938D0180938C01222379F083E791E026
:1010F0000E94EE05898383E791E061E070E00E9441
:10110000220410928D0110928C018091720188232B
:1011100091F080918E0190918F01F1E08C329F07C8
:1011200050F480918E0190918F01019690938F01E0
:1011300080938E0117C080917201882379F080918D
:101140008E0190918F0121E08C32920738F010923D
:101150008F0110928E011092720104C010928F01C3
:1011600010928E0178940F90DF91CF91FF91EF91C3
:10117000BF91AF919F918F917F916F915F914F91AF
:101180003F912F910F900FBE0F901F9018950F93C6
:101190001F93CF93DF93CDB7DEB7CF55D0400FB6B7
:1011A000F894DEBF0FBECDBF0E94780A83E390E0C3
:1011B0000E949F0A0E94EB0E0E94710B789482E0BD
:1011C00090E00E94090F88E290E028E230E0F90107
:1011D00020812068FC01208380917201882379F0AE
:1011E0008FE491E00E9404010E94310188E290E0C6
:1011F00028E230E0F90120812F7EFC01208381E08C
:1012000090E00E94090F80917101882309F42BC19D
:10121000F8948AE591E00E94040188E290E028E2D7
:1012200030E0F90120812062FC0120830E94460EFB
:10123000DC01CB018B839C83AD83BE8383E390E091
:101240000E94A80BDC01CB018F839887A987BA87FE
:101250000E94A30CDC01CB018B879C87AD87BE87E6
:101260000E947E0DDC01CB018F87988BA98BBA8BF6
:101270008AE791E04B855C856D857E850F851889B1
:1012800029893A890E949D028B819C81AD81BE8112
:10129000FE017396BC01CD0141E022E08F010E9466
:1012A000DD118B859C85AD85BE85FE01B396BC01A5
:1012B000CD0141E022E08F010E94DD118F819885F0
:1012C000A985BA85FE017B96BC01CD0141E022E0F3
:1012D0008F010E94DD118F859889A989BA89FE0145
:1012E000BB96BC01CD0141E022E08F010E94DD11DF
:1012F000CE01C3962BE631E043E0F90100802F5F79
:101300003F4FFC010082019641504423B1F7CE01CA
:10131000C3969E012D5E3F4FB9010E94FF11CE0181
:10132000C3969C01F90101900020E9F7CF010197D4
:10133000821B930B9E012D5C3F4F280F391F8FE2BC
:1013400094E5A9E4B0E0F90180839183A283B3839B
:10135000CE01C3969E01255E3F4FB9010E94FF1149
:10136000CE01C3969C01F90101900020E9F7CF015D
:101370000197821B930B9E012D5C3F4F280F391F55
:101380008FE294E5A8E4B0E0F90180839183A28321
:10139000B383CE01C3969E012D5D3F4FB9010E94DC
:1013A000FF11CE01C3969C01F90101900020E9F7DD
:1013B000CF010197821B930B9E012D5C3F4F280F9D
:1013C000391F8FE298E4A5E5B0E0F90180839183AD
:1013D000A283B383CE01C3969E01255D3F4FB90121
:1013E0000E94FF11CE01C3969C01F90101900020DB
:1013F000E9F7CF010197821B930B9E012D5C3F4FB4
:10140000820F931F28E530E0FC013183208388E2BE
:1014100090E028E230E0F90120812F7DFC0120835B
:10142000CE01C3960E940401109271011A821982A2
:101430001A8219820EC09E012D5C3F4F89819A81CC
:10144000820F931FFC01108289819A8101969A83F1
:10145000898321E089819A818D3291050CF020E009
:10146000222349F7789488E290E028E230E0F901FD
:1014700020812F77FC01208381E0809370011092FE
:101480006F0110926E0183E590E026E0FC0120835D
:1014900083E590E023E530E0F90120812160FC0143
:1014A00020830AC0889580916E0190916F0101960A
:1014B00090936F0180936E019091720181E0992366
:1014C00009F080E0882371F783E590E0FC01108249
:1014D0001092700188E290E028E230E0F90120816A
:1014E0002068FC0120838AE090E00E94390F74CECE
:1014F000CF93DF93CDB7DEB781E290E0FC0110829D
:1015000084E290E0FC01108287E290E0FC0110820E
:101510008AE290E0FC01108282E290E0FC011082FD
:1015200085E290E0FC01108288E290E0FC011082EC
:101530008BE290E0FC011082DF91CF910895CF9370
:10154000DF9300D000D000D0CDB7DEB79E838D836F
:1015500084EC90E02D81FC01208385EC90E02D81CE
:101560003E81232F3327FC01208381EC90E028E18A
:10157000FC01208382EC90E026E0FC01208387E2DE
:1015800090E027E230E0F9012081286FFC01208300
:1015900084E090E09A8389831DC088E290E028E28D
:1015A00030E0F9012081422F21E030E0098002C0C3
:1015B000220F331F0A94E2F7242BFC01208388ECCE
:1015C00090E00E94390F0E94EB0E89819A8101966A
:1015D0009A83898321E089819A81883091050CF072
:1015E00020E02223D1F687E090E09C838B831DC00E
:1015F00088E290E028E230E0F9012081422F21E0EA
:1016000030E00B8002C0220F331F0A94E2F7242B34
:10161000FC01208388EC90E00E94390F0E94EB0EC1
:101620008B819C8101979C838B8321E08B819C81A2
:10163000843091050CF420E02223D1F684E290E07E
:1016400024E230E0F9012081206BFC01208385E257
:1016500090E025E230E0F90120812069FC0120833F
:1016600085E290E025E230E0F90120812F7BFC014A
:10167000208385E290E025E230E0F90120812F7D92
:10168000FC0120838CE490E02CE430E0F90120811F
:101690002365FC01208384E690E024E630E0F90134
:1016A00020812D6FFC01208389E690E029E630E05F
:1016B000F90120812063FC0120838DE390E024E088
:1016C000FC0120831092700110927101109272013E
:1016D00026960FB6F894DEBF0FBECDBFDF91CF9137
:1016E0000895CF93DF93CDB7DEB7F89484E690E00A
:1016F00024E630E0F90120812F7BFC01208381E08A
:1017000090E00E94390F81EB90E021EB30E0F9018D
:1017100020812760FC01208386EB90E0FC01808122
:10172000882F90E08171907021E0009709F420E00B
:10173000222391F787E390E021E0FC01208380E7FA
:1017400090E021E0FC0120837894DF91CF9108950F
:10175000CF93DF93CDB7DEB728970FB6F894DEBFEF
:101760000FBECDBF98878F831A82198284E690E0DE
:1017700024E630E0F90120812F7EFC0120838AE0FD
:1017800090E00E94390F8CEC90E0FC0111821082F5
:101790008AE290E02AE230E0F90120812063FC0136
:1017A00020838BE290E02BE230E0F901208120637E
:1017B000FC0120838AEC90E020ECFC01208389EC82
:1017C00090E028E1FC0120838CEC90E02F81FC016B
:1017D00020838DEC90E02F813885232F3327FC0167
:1017E0002083000088EC90E0FC018081882F90E04D
:1017F0008072907021E0009709F020E0222391F799
:101800008BE290E02BE230E0F90120812F7DFC019A
:1018100020838EEC90E0FC011082000088EC90E0C8
:10182000FC0180818095881F8827881F8823B1F755
:101830008EEC90E0FC018081882F90E0982F882723
:101840009A8389838EEC90E0FC011082000088EC82
:1018500090E0FC0180818095881F8827881F88235D
:10186000B1F78EEC90E0FC018081882F90E0298117
:101870003A81822B932B9A8389838BE290E02BE22F
:1018800030E0F90120812063FC0120838AEC90E0A4
:10189000FC01108289EC90E0FC01108288EC90E061
:1018A000FC0110828CEC90E0FC0110828DEC90E049
:1018B000FC01108284E690E024E630E0F90120810A
:1018C0002061FC01208389819A8196958795969560
:1018D0008795CC01A0E0B0E0BC01CD010E9497103B
:1018E000DC01CB01BC01CD0120E030E040E05DE354
:1018F0000E944D11DC01CB01BC01CD0126E636E68C
:1019000046EE5FE30E944D11DC01CB01BC01CD012D
:1019100020E030E040E052E40E949B0FDC01CB016C
:101920008B839C83AD83BE838B819C81AD81BE8183
:10193000BC01CD0128960FB6F894DEBF0FBECDBF17
:10194000DF91CF910895CF93DF93CDB7DEB728977E
:101950000FB6F894DEBF0FBECDBF1C821B8280E0A5
:1019600090E0DC018D839E83AF83B88784E690E0AE
:1019700024E630E0F90120812E7FFC0120838CE7F2
:1019800090E02CE730E0F90120812264FC01208303
:101990008AE790E02AE730E0F90120812768FC011E
:1019A00020838EE790E02BEFFC0120838AE090E01B
:1019B0000E94390F1A8219821CC08AE790E02AE738
:1019C00030E0F90120812064FC0120838AE790E067
:1019D000FC018081882F90E08074907021E0009756
:1019E00009F420E0222391F789819A8101969A8354
:1019F000898321E089819A81823091050CF020E071
:101A00002223D9F688E790E0FC018081882F90E0BE
:101A10009C838B8389E790E0FC018081882F90E094
:101A2000982F88272B813C81822B932B9C838B833F
:101A30008AE790E0FC0110828CE790E0FC011082C4
:101A40008EE790E02EE730E0F90120812460FC0170
:101A5000208384E690E024E630E0F90120812160D3
:101A6000FC01208322EF32E08B819C81A901481B7D
:101A7000590BCA019C838B838B819C81CC01A0E094
:101A8000B0E0BC01CD010E949710DC01CB01BC018C
:101A9000CD0128E431EE4CE151E40E940310DC0159
:101AA000CB018D839E83AF83B8876D817E818F81CB
:101AB000988526E636E646EE5FE30E944D11DC018E
:101AC000CB01BC01CD0120E030E040E052E40E94B7
:101AD0009B0FDC01CB018D839E83AF83B8878D8103
:101AE0009E81AF81B885BC01CD0128960FB6F894D0
:101AF000DEBF0FBECDBFDF91CF910895CF93DF93AF
:101B0000CDB7DEB728970FB6F894DEBF0FBECDBFB6
:101B100084E690E024E630E0F90120812E7FFC018C
:101B200020838AE090E00E94390F8CE790E02CE758
:101B300030E0F90120812164FC0120838AE790E0F4
:101B40002AE730E0F90120812768FC0120838EE735
:101B500090E02DEFFC0120838AE090E00E94390F95
:101B60001A8219821CC08AE790E02AE730E0F90166
:101B700020812064FC0120838AE790E0FC018081C1
:101B8000882F90E08074907021E0009709F420E0A5
:101B9000222391F789819A8101969A83898321E092
:101BA00089819A81823091050CF020E02223D9F6B8
:101BB00088E790E0FC018081882F90E09C838B83F4
:101BC00089E790E0FC018081882F90E0982F88279A
:101BD0002B813C81822B932B9C838B838AE790E023
:101BE000FC0110828CE790E0FC0110828EE790E00F
:101BF0002EE730E0F90120812260FC01208384E699
:101C000090E024E630E0F90120812160FC0120838E
:101C10008B819C81CC01A0E0B0E0BC01CD010E9491
:101C20009710DC01CB018D839E83AF83B8876D81D4
:101C30007E818F81988520E030E04BE153E40E9463
:101C40009A0FDC01CB018D839E83AF83B8876D81B2
:101C50007E818F81988523E738E64DE950E40E9424
:101C60000310DC01CB018D839E83AF83B8878D8108
:101C70009E81AF81B885BC01CD0128960FB6F8943E
:101C8000DEBF0FBECDBFDF91CF910895CF93DF931D
:101C900000D000D000D0CDB7DEB71A82198284E61A
:101CA00090E024E630E0F90120812B7FFC012083C5
:101CB0008AE090E00E94390F85E290E025E230E072
:101CC000F90120812F7EFC0120838EE490E0FC014D
:101CD000108200008DE490E0FC0180818095881FD7
:101CE0008827881F8823B1F78EE490E0FC0180816B
:101CF000882F90E0982F88279A8389838EE490E03C
:101D0000FC01108200008DE490E0FC018081809550
:101D1000881F8827881F8823B1F78EE490E0FC0194
:101D20008081882F90E029813A81822B932B9A839E
:101D3000898384E690E024E630E0F9012081246084
:101D4000FC01208385E290E025E230E0F90120816A
:101D50002069FC0120838AE090E00E94390F89818C
:101D60009A81CC01A0E0B0E0BC01CD010E949710A7
:101D7000DC01CB01BC01CD0120E030E040E05DE3BF
:101D80000E944D11DC01CB01BC01CD0126E636E6F7
:101D900046EE5FE30E944D11DC01CB01BC01CD0199
:101DA00020E030E040E052E40E949B0FDC01CB01D8
:101DB0008B839C83AD83BE838B819C81AD81BE81EF
:101DC000BC01CD0126960FB6F894DEBF0FBECDBF85
:101DD000DF91CF910895CF93DF9300D0CDB7DEB7D9
:101DE00088E290E0FC01908180EF8927882F90E0C5
:101DF0009A83898388E290E028E230E0F90130811B
:101E000029812323FC0120830F900F90DF91CF9134
:101E10000895CF93DF9300D000D0CDB7DEB79C8379
:101E20008B8383E791E00E94EE05282F30E08B81C1
:101E30009C81820F931F2CE330E0B9010E94B01106
:101E40009A838983000083E791E00E94EE05282FA2
:101E500030E041E089819A812817390709F440E090
:101E6000442389F70F900F900F900F90DF91CF913F
:101E70000895CF93DF9300D000D0CDB7DEB79C8319
:101E80008B8318C01A82198206C0000089819A814A
:101E900001969A83898321E089819A8131E0803992
:101EA000930708F020E0222381F78B819C81019722
:101EB0009C838B8321E08B819C81009709F420E037
:101EC000222301F70F900F900F900F90DF91CF9189
:101ED0000895CF93DF9300D000D0CDB7DEB79A83BB
:101EE00089837C836B8389819A818130910571F428
:101EF0008B819C812FEF8F3F920741F483E791E024
:101F00000E94FB038AE791E00E942B020F900F9042
:101F10000F900F90DF91CF910895CF93DF93CDB7BE
:101F2000DEB781E090E06FEF7FEF0E94690FDF91F5
:101F3000CF9108955058BB27AA270ED070C161D108
:101F400030F066D120F031F49F3F11F41EF456C1F9
:101F50000EF4E095E7FB4CC1E92F72D180F3BA177C
:101F6000620773078407950718F071F49EF58AC11C
:101F70000EF4E0950B2EBA2FA02D0B01B9019001A4
:101F80000C01CA01A0011124FF27591B99F0593FE8
:101F900050F4503E68F11A16F040A22F232F342F30
:101FA0004427585FF3CF469537952795A795F0407E
:101FB0005395C9F77EF41F16BA0B620B730B840B93
:101FC000BAF09150A1F0FF0FBB1F661F771F881F4B
:101FD000C2F70EC0BA0F621F731F841F48F48795A3
:101FE00077956795B795F7959E3F08F0B3CF939592
:101FF000880F08F09927EE0F979587950895D4D00C
:1020000008F481E008950CD00AC102D140F0F9D063
:1020100030F021F45F3F19F0EBC0511134C1EEC034
:102020000FD198F39923C9F35523B1F3951B550BA1
:10203000BB27AA2762177307840738F09F5F5F4F9B
:10204000220F331F441FAA1FA9F333D00E2E3AF0DC
:10205000E0E830D091505040E695001CCAF729D0F6
:10206000FE2F27D0660F771F881FBB1F2617370745
:102070004807AB07B0E809F0BB0B802DBF01FF2775
:1020800093585F4F2AF09E3F510568F0B1C0FBC0E6
:102090005F3FECF3983EDCF3869577956795B795AF
:1020A000F7959F5FC9F7880F911D9695879597F9CA
:1020B0000895E1E0660F771F881FBB1F6217730743
:1020C0008407BA0720F0621B730B840BBA0BEE1F58
:1020D00088F7E0950895BCD088F09F5790F0B92F0D
:1020E0009927B751A0F0D1F0660F771F881F991F6D
:1020F0001AF0BA95C9F712C0B13081F0C3D0B1E07F
:102100000895C0C0672F782F8827B85F39F0B93F8E
:10211000CCF3869577956795B395D9F73EF490956E
:102120008095709561957F4F8F4F9F4F0895E894EC
:1021300009C097FB3EF490958095709561957F4F0F
:102140008F4F9F4F9923A9F0F92F96E9BB279395BD
:10215000F695879577956795B795F111F8CFFAF4CD
:10216000BB0F11F460FF1BC06F5F7F4F8F4F9F4FFE
:1021700016C0882311F096E911C0772321F09EE85C
:10218000872F762F05C0662371F096E8862F70E0C2
:1021900060E02AF09A95660F771F881FDAF7880F9C
:1021A0009695879597F90895990F0008550FAA0BF2
:1021B000E0E8FEEF16161706E807F907C0F012165A
:1021C0001306E407F50798F0621B730B840B950B5D
:1021D00039F40A2661F0232B242B252B21F40895B2
:1021E0000A2609F4A140A6958FEF811D811D08954F
:1021F00097F99F6780E870E060E008959FEF80ECBA
:10220000089500240A94161617061806090608955C
:1022100000240A9412161306140605060895092EC2
:102220000394000C11F4882352F0BB0F40F4BF2B31
:1022300011F460FF04C06F5F7F4F8F4F9F4F089571
:1022400057FD9058440F551F59F05F3F71F0479567
:10225000880F97FB991F61F09F3F79F0879508954C
:10226000121613061406551FF2CF4695F1DF08C06B
:10227000161617061806991FF1CF86957105610588
:1022800008940895E894BB2766277727CB0197F930
:1022900008958ADF08F48FEF08950BD0C0CFB1DF27
:1022A00028F0B6DF18F0952309F0A2CFA7CF1124AC
:1022B000EACFC6DFA0F3959FD1F3950F50E0551FED
:1022C000629FF001729FBB27F00DB11D639FAA278B
:1022D000F00DB11DAA1F649F6627B00DA11D661FDA
:1022E000829F2227B00DA11D621F739FB00DA11DFB
:1022F000621F839FA00D611D221F749F3327A00DB5
:10230000611D231F849F600D211D822F762F6A2F50
:1023100011249F5750408AF0E1F088234AF0EE0FD5
:10232000FF1FBB1F661F771F881F91505040A9F7E2
:102330009E3F510570F05CCFA6CF5F3FECF3983E17
:10234000DCF3869577956795B795F795E7959F5F49
:10235000C1F7FE2B880F911D9695879597F90895E3
:10236000AA1BBB1B51E107C0AA1FBB1FA617B707BB
:1023700010F0A61BB70B881F991F5A95A9F78095D7
:102380009095BC01CD01089597FB092E07260AD030
:1023900077FD04D0E5DF06D000201AF47095619532
:1023A0007F4F0895F6F7909581959F4F0895EE0F12
:1023B000FF1F0590F491E02D0994EF920F931F9366
:1023C000CF93322FC02F47FF02C0A4E101C0A4E089
:1023D000E42FFF27E7FDF095F7FF03C0F095E195A7
:1023E000FF4F4C2F512F2E2F032FEA2E0E945012F9
:1023F0008C2F912FCF911F910F91EF900895FB019A
:10240000DC010D900020E9F7119701900D9200205A
:10241000E1F70895FB01DC014150504030F08D910F
:102420000190801919F40020B9F7881B990B0895C1
:10243000F999FECF92BD81BDF89A992780B508958C
:10244000A6E1B0E044E050E00C948214A8E1B0E0D2
:1024500042E050E00C948214262FF999FECF92BDF1
:1024600081BDF89A019700B4021639F01FBA20BD59
:102470000FB6F894FA9AF99A0FBE08950396272F8B
:102480000E942D120E942C12252F0E942D12242F03
:102490000C942D120196272F0E942D120C942C12B1
:1024A000A9E0B0E0E6E5F2E10C9494146A01122F81
:1024B000F02E2BE3201718F0B02EB39402C03CE3AB
:1024C000B32EAE014F5F5F4F27E00B2D0E94A81384
:1024D000BC01A981B0E0CD01897090708130910577
:1024E00031F0E1FC06C0E0FE06C040E205C04DE26E
:1024F00003C04BE201C040E0A3FF36C0442311F00B
:1025000084E001C083E0811710F4181B01C010E0C3
:10251000E4FC0BC0912FF60180E202C08193915040
:102520009923E1F7C10ED11C10E0442319F0F60104
:1025300041936F01E2FE05C08EE4F601808391E4D1
:1025400004C08EE6F601808391E69183828383E066
:1025500090E0C80ED91E812FF60190E202C091933F
:1025600081508823E1F73AC0A2FF3FC0442311F015
:1025700084E001C083E0811710F4181B01C010E053
:10258000E4FC0BC0912FF60180E202C081939150D0
:102590009923E1F7C10ED11C10E0442319F0F60194
:1025A00041936F01E2FE07C089E4F60180838EE467
:1025B000818386E406C089E6F60180838EE6818306
:1025C00086E6828383E090E0C80ED91E812FF60153
:1025D00090E202C0919381508823E1F7C10ED11C93
:1025E000F60110828EEF9FEFAFC021E030E0442370
:1025F00011F420E030E0161617061CF4CB0101960A
:1026000002C081E090E0280F391FFF2021F08F2DBC
:1026100090E0019602C080E090E0820F931F212F8E
:1026200030E0821793071CF4512F581B01C050E073
:102630008E2D90E09C0120713070E4FC0DC0E3FC15
:102640000BC0852FF60190E202C091938150882340
:10265000E1F7C50ED11C50E0442319F0F601419377
:102660006F012115310559F4852FF60190E302C061
:10267000919381508823E1F7C50ED11C50E0B60E2E
:102680004A8120E1622E712C6A227B22A4FF03C0C2
:10269000413309F4BA941B142CF48B2D893018F0B3
:1026A00088E001C081E09B0177FF02C020E030E0BC
:1026B000A0E0B0E09EE2E92E4B01881A9108CB0120
:1026C000821B930B8E010F5F1F4F080F191F8F2D59
:1026D00090E0AA24BB24A81AB90AFFEF2F3F3F07B6
:1026E00019F4F601E1926F016217730744F0821644
:1026F00093062CF4F801EA0FFB1F818101C080E3EF
:102700002150304011962A153B0524F0F6018193A3
:102710006F01E3CF2617370741F4463328F44533DA
:1027200021F46114710409F481E3F6018193852F8A
:10273000DF0190E202C09D9381508823E1F7E50F0D
:10274000F11D108280E090E02996EEE00C94B01428
:10275000283008F027E03327DA01990F311D87FD73
:10276000916000966105710539F432602E5F3D93EA
:1027700030E32A95E1F708959F3F30F080387105E6
:10278000610509F03C5F3C5F3D93913008F0806843
:10279000911DDF93CF931F930F93FF92EF92192F09
:1027A000987F9695E92F96959695E90FFF27EA521F
:1027B000FF4F99273327EE24FF24A701E701059057
:1027C0000894079428F4360FE71EF81E491F511D80
:1027D000660F771F881F991F0694A1F7059007942D
:1027E00028F4E70EF81E491F561FC11D770F881FDA
:1027F000991F661F0694A1F70590079428F4F80E18
:10280000491F561FC71FD11D880F991F661F771FAD
:102810000694A1F70590079420F4490F561FC71F8F
:10282000D81F990F661F771F881F0694A9F78491F8
:102830001095177041F0D695C79557954795F79421
:10284000E7941A95C1F7ECE7F0E0689415901591BC
:1028500035916591959105907FE27395E118F10AA4
:10286000430B560BC90BD009C0F7E10CF11E431FF7
:10287000561FC91FD01D7EF4703311F48A95E6CF20
:10288000E894015030F0080F0AF40027021708F40A
:10289000202F2395022F7A3328F079E37D932A9510
:1028A000E9F710C07D932A9589F606949795679568
:1028B000379517951794E118F10A430B560BC90B7E
:1028C000D00998F023957E9173957A3308F070E3E0
:1028D0007C932013B8F77E9170617D9330F08395DF
:1028E00071E37D9370E32A95E1F71124EF90FF9057
:1028F0000F911F91CF91DF91992787FD90950895B2
:10290000DC01CB01FC01F999FECF06C0F2BDE1BDAF
:10291000F89A319600B40D9241505040B8F708959E
:102920002F923F924F925F926F927F928F929F92DF
:10293000AF92BF92CF92DF92EF92FF920F931F93CD
:10294000CF93DF93CDB7DEB7CA1BDB0B0FB6F8947E
:10295000DEBF0FBECDBF09942A88398848885F84BE
:102960006E847D848C849B84AA84B984C884DF802F
:10297000EE80FD800C811B81AA81B981CE0FD11D13
:102980000FB6F894DEBF0FBECDBFED010895F894E9
:02299000FFCF77
:1029920041434B2E0053544154532E0048692E009C
:1029A20048656C6C6F205261737062657272792037
:1029B20050692100736176652E00536176696E67F6
:1029C2002E2E2E00556E6B6E6F776E2071756572AE
:1029D200792E001F1C1F1E1F1E1F1F1E1F1E1F528F
:1029E2006563656976696E672E0054616B696E670F
:0E29F2002072656164696E67732E00414400B7
:00000001FF
