:100000000C9434000C9451000C9451000C94510049
:100010000C9451000C9451000C9451000C9451001C
:100020000C9451000C9451000C9451000C9451000C
:100030000C9451000C9451000C9451000C945100FC
:100040000C9451000C9451000C9451000C945100EC
:100050000C9451000C9453000C9451000C945100DA
:100060000C9451000C94510011241FBECFEFD4E02A
:10007000DEBFCDBF11E0A0E0B1E0E2EAF4E002C0F3
:1000800005900D92AC30B107D9F711E0ACE0B1E0CA
:1000900001C01D92A031B107E1F70E9492000C94BB
:1000A0004F020C9400001F920F920FB60F92112472
:1000B0002F933F938F939F93EF93FF93CF93DF9370
:1000C000CDB7DEB788E790E0FC018081882F90E013
:1000D00090930F0180930E0189E790E0FC018081ED
:1000E000882F90E0982F88279C0180910E01909195
:1000F0000F01822B932B90930F0180930E0181E0CF
:1001000090E090930D0180930C01DF91CF91FF91CE
:10011000EF919F918F913F912F910F900FBE0F9074
:100120001F901895CF93DF93CDB7DEB70E94D40010
:1001300083E390E00E94F60088E290E028E230E05D
:10014000F90120812460FC0120838AE790E02AE7FE
:1001500030E0F90120812064FC01208301C000000F
:1001600080910C0190910D010097C9F388E290E015
:1001700028E230E0F90120812B7FFC012083F894F4
:1001800080910E0190910F010E94A10188E893E1F6
:100190000E94350110920F0110920E0110920D0174
:1001A00010920C017894C8CFCF93DF93CDB7DEB710
:1001B00084E290E0FC01108287E290E0FC01108272
:1001C0008AE290E0FC01108285E290E02FEFFC01D2
:1001D000208388E290E02FEFFC0120838BE290E007
:1001E0002FEFFC012083DF91CF910895CF93DF9310
:1001F00000D0CDB7DEB79A83898384EC90E0298163
:10020000FC01208385EC90E029813A81232F33275C
:10021000FC01208381EC90E028E1FC01208382EC4A
:1002200090E026E0FC0120838CE790E0FC01108246
:100230008CE790E02CE730E0F90120812064FC019C
:1002400020838AE790E02AE730E0F90120812C68DA
:10025000FC01208387E290E024E0FC012083789475
:100260000F900F90DF91CF910895CF93DF9300D03F
:1002700000D0CDB7DEB79C838B8314C01A8219825D
:1002800006C0000089819A8101969A8389838981B9
:100290009A8121E080399207A0F38B819C8101979C
:1002A0009C838B838B819C81009741F70F900F90EB
:1002B0000F900F90DF91CF910895CF93DF930F921E
:1002C000CDB7DEB7898301C0000080EC90E0FC016F
:1002D0008081882F90E0807290700097A9F386EC5F
:1002E00090E02981FC0120830F90DF91CF91089548
:1002F000CF93DF9300D00F92CDB7DEB79B838A8375
:1003000019820EC08981882F90E02A813B81820F5B
:10031000931FFC0180810E945D0189818F5F898329
:100320008981882F90E02A813B81820F931FFC01F5
:100330008081882339F70F900F900F90DF91CF9134
:100340000895CF93DF93CDB7DEB76B970FB6F894D0
:10035000DEBF0FBECDBF9B8F8A8F1982CE010F9655
:1003600020E031E04BE0F90100802F5F3F4FFC01BE
:100370000082019641504423B1F72A8D3B8DC9017B
:10038000880F991FAC01440F551F440F551F840F50
:10039000951F820F931F9B838A838A8D9B8D2AE0F2
:1003A00030E0B9010E9415029B01C901880F991F15
:1003B000820F931F880F991F9C018A8D9B8D44E6A5
:1003C00050E0BA010E941502AB01CA01880F991FC3
:1003D000880F991F820F931F2A813B81820F931FE1
:1003E0009B838A838A819B819E012C5F3F4FB90149
:1003F0004AE050E00E9429028C818A878D818B8798
:100400008EE28C878E818D87CE010A960E947801BC
:10041000CE010F960E9478016B960FB6F894DEBF5E
:100420000FBECDBFDF91CF910895AA1BBB1B51E139
:1004300007C0AA1FBB1FA617B70710F0A61BB70B54
:10044000881F991F5A95A9F780959095BC01CD01F9
:100450000895FB019F01423074F0453264F4642F2B
:1004600077270E941502805D8A330CF0895D8193A5
:10047000CB010097A1F71082C9010C943F02DC0167
:10048000FC01672F71917723E1F7329704C07C91CB
:100490006D9370836291AE17BF07C8F30895F89407
:0204A000FFCF8C
:0C04A20020646567726565732E20000001
:00000001FF
